{
	"SubsidyVoucher.sol": {
		"SubsidyVouchers": {
			"abi": [
				{
					"inputs": [],
					"stateMutability": "nonpayable",
					"type": "constructor"
				},
				{
					"anonymous": false,
					"inputs": [
						{
							"indexed": true,
							"internalType": "address",
							"name": "supplier",
							"type": "address"
						}
					],
					"name": "SupplierRegistered",
					"type": "event"
				},
				{
					"anonymous": false,
					"inputs": [
						{
							"indexed": true,
							"internalType": "address",
							"name": "supplier",
							"type": "address"
						}
					],
					"name": "SupplierUnregistered",
					"type": "event"
				},
				{
					"anonymous": false,
					"inputs": [
						{
							"indexed": true,
							"internalType": "uint256",
							"name": "voucherId",
							"type": "uint256"
						},
						{
							"indexed": true,
							"internalType": "address",
							"name": "farmer",
							"type": "address"
						},
						{
							"indexed": false,
							"internalType": "uint256",
							"name": "amount",
							"type": "uint256"
						},
						{
							"indexed": false,
							"internalType": "uint256",
							"name": "issueTime",
							"type": "uint256"
						}
					],
					"name": "VoucherIssued",
					"type": "event"
				},
				{
					"anonymous": false,
					"inputs": [
						{
							"indexed": true,
							"internalType": "uint256",
							"name": "voucherId",
							"type": "uint256"
						},
						{
							"indexed": true,
							"internalType": "address",
							"name": "supplier",
							"type": "address"
						},
						{
							"indexed": false,
							"internalType": "address",
							"name": "farmer",
							"type": "address"
						},
						{
							"indexed": false,
							"internalType": "uint256",
							"name": "amount",
							"type": "uint256"
						},
						{
							"indexed": false,
							"internalType": "uint256",
							"name": "redemptionTime",
							"type": "uint256"
						}
					],
					"name": "VoucherRedeemed",
					"type": "event"
				},
				{
					"inputs": [],
					"name": "funder",
					"outputs": [
						{
							"internalType": "address",
							"name": "",
							"type": "address"
						}
					],
					"stateMutability": "view",
					"type": "function"
				},
				{
					"inputs": [],
					"name": "getAllSuppliers",
					"outputs": [
						{
							"internalType": "address[]",
							"name": "",
							"type": "address[]"
						}
					],
					"stateMutability": "view",
					"type": "function"
				},
				{
					"inputs": [
						{
							"internalType": "address",
							"name": "",
							"type": "address"
						}
					],
					"name": "isSupplier",
					"outputs": [
						{
							"internalType": "bool",
							"name": "",
							"type": "bool"
						}
					],
					"stateMutability": "view",
					"type": "function"
				},
				{
					"inputs": [
						{
							"internalType": "address",
							"name": "_farmer",
							"type": "address"
						},
						{
							"internalType": "uint256",
							"name": "_amount",
							"type": "uint256"
						}
					],
					"name": "issueVoucher",
					"outputs": [],
					"stateMutability": "nonpayable",
					"type": "function"
				},
				{
					"inputs": [
						{
							"internalType": "uint256",
							"name": "_voucherId",
							"type": "uint256"
						}
					],
					"name": "redeemVoucher",
					"outputs": [],
					"stateMutability": "nonpayable",
					"type": "function"
				},
				{
					"inputs": [
						{
							"internalType": "address",
							"name": "_supplier",
							"type": "address"
						}
					],
					"name": "registerSupplier",
					"outputs": [],
					"stateMutability": "nonpayable",
					"type": "function"
				},
				{
					"inputs": [
						{
							"internalType": "uint256",
							"name": "",
							"type": "uint256"
						}
					],
					"name": "supplierList",
					"outputs": [
						{
							"internalType": "address",
							"name": "",
							"type": "address"
						}
					],
					"stateMutability": "view",
					"type": "function"
				},
				{
					"inputs": [
						{
							"internalType": "address",
							"name": "_supplier",
							"type": "address"
						}
					],
					"name": "unregisterSupplier",
					"outputs": [],
					"stateMutability": "nonpayable",
					"type": "function"
				},
				{
					"inputs": [
						{
							"internalType": "uint256",
							"name": "",
							"type": "uint256"
						}
					],
					"name": "vouchers",
					"outputs": [
						{
							"internalType": "uint256",
							"name": "id",
							"type": "uint256"
						},
						{
							"internalType": "address",
							"name": "farmer",
							"type": "address"
						},
						{
							"internalType": "uint256",
							"name": "amount",
							"type": "uint256"
						},
						{
							"internalType": "uint256",
							"name": "issueTime",
							"type": "uint256"
						},
						{
							"internalType": "address",
							"name": "supplier",
							"type": "address"
						},
						{
							"internalType": "uint256",
							"name": "redemptionTime",
							"type": "uint256"
						},
						{
							"internalType": "enum SubsidyVouchers.Status",
							"name": "status",
							"type": "uint8"
						}
					],
					"stateMutability": "view",
					"type": "function"
				}
			],
			"devdoc": {
				"kind": "dev",
				"methods": {
					"registerSupplier(address)": {
						"params": {
							"_supplier": "The address of the agro-input supplier."
						}
					},
					"unregisterSupplier(address)": {
						"details": "We keep supplierList entries to save gas; frontend filters by isSupplier mapping.",
						"params": {
							"_supplier": "The address to unregister."
						}
					}
				},
				"title": "SubsidyVouchers",
				"version": 1
			},
			"evm": {
				"assembly": "    /* \"SubsidyVoucher.sol\":196:4640  contract SubsidyVouchers {... */\n  mstore(0x40, 0xa0)\n    /* \"SubsidyVoucher.sol\":398:399  0 */\n  0x00\n    /* \"SubsidyVoucher.sol\":365:399  uint256 private voucherCounter = 0 */\n  0x00\n  sstore\n    /* \"SubsidyVoucher.sol\":1896:1948  constructor() {... */\n  callvalue\n  dup1\n  iszero\n  tag_1\n  jumpi\n  revert(0x00, 0x00)\ntag_1:\n  pop\n    /* \"SubsidyVoucher.sol\":1930:1940  msg.sender */\n  caller\n    /* \"SubsidyVoucher.sol\":1921:1940  funder = msg.sender */\n  0xffffffffffffffffffffffffffffffffffffffff\n  and\n  0x80\n  dup2\n  0xffffffffffffffffffffffffffffffffffffffff\n  and\n  dup2\n  mstore\n  pop\n  pop\n    /* \"SubsidyVoucher.sol\":196:4640  contract SubsidyVouchers {... */\n  mload(0x80)\n  codecopy(0x00, dataOffset(sub_0), dataSize(sub_0))\n  0x00\n  assignImmutable(\"0x13600b294191fc92924bb3ce4b969c1e7e2bab8f4c93c3fc6d0a51733df3c060\")\n  return(0x00, dataSize(sub_0))\nstop\n\nsub_0: assembly {\n        /* \"SubsidyVoucher.sol\":196:4640  contract SubsidyVouchers {... */\n      mstore(0x40, 0x80)\n      callvalue\n      dup1\n      iszero\n      tag_1\n      jumpi\n      revert(0x00, 0x00)\n    tag_1:\n      pop\n      jumpi(tag_2, lt(calldatasize, 0x04))\n      shr(0xe0, calldataload(0x00))\n      dup1\n      0x46336542\n      gt\n      tag_12\n      jumpi\n      dup1\n      0x46336542\n      eq\n      tag_7\n      jumpi\n      dup1\n      0x8da75e57\n      eq\n      tag_8\n      jumpi\n      dup1\n      0xa58f6650\n      eq\n      tag_9\n      jumpi\n      dup1\n      0xb53305dc\n      eq\n      tag_10\n      jumpi\n      dup1\n      0xcf7f5e5f\n      eq\n      tag_11\n      jumpi\n      jump(tag_2)\n    tag_12:\n      dup1\n      0x041ae880\n      eq\n      tag_3\n      jumpi\n      dup1\n      0x1c6d6b5e\n      eq\n      tag_4\n      jumpi\n      dup1\n      0x3e97b43f\n      eq\n      tag_5\n      jumpi\n      dup1\n      0x413104ee\n      eq\n      tag_6\n      jumpi\n    tag_2:\n      revert(0x00, 0x00)\n        /* \"SubsidyVoucher.sol\":271:302  address public immutable funder */\n    tag_3:\n      tag_13\n      tag_14\n      jump\t// in\n    tag_13:\n      mload(0x40)\n      tag_15\n      swap2\n      swap1\n      tag_16\n      jump\t// in\n    tag_15:\n      mload(0x40)\n      dup1\n      swap2\n      sub\n      swap1\n      return\n        /* \"SubsidyVoucher.sol\":3916:4637  function redeemVoucher(uint256 _voucherId) public {... */\n    tag_4:\n      tag_17\n      0x04\n      dup1\n      calldatasize\n      sub\n      dup2\n      add\n      swap1\n      tag_18\n      swap2\n      swap1\n      tag_19\n      jump\t// in\n    tag_18:\n      tag_20\n      jump\t// in\n    tag_17:\n      stop\n        /* \"SubsidyVoucher.sol\":912:955  mapping(uint256 => Voucher) public vouchers */\n    tag_5:\n      tag_21\n      0x04\n      dup1\n      calldatasize\n      sub\n      dup2\n      add\n      swap1\n      tag_22\n      swap2\n      swap1\n      tag_19\n      jump\t// in\n    tag_22:\n      tag_23\n      jump\t// in\n    tag_21:\n      mload(0x40)\n      tag_24\n      swap8\n      swap7\n      swap6\n      swap5\n      swap4\n      swap3\n      swap2\n      swap1\n      tag_25\n      jump\t// in\n    tag_24:\n      mload(0x40)\n      dup1\n      swap2\n      sub\n      swap1\n      return\n        /* \"SubsidyVoucher.sol\":2719:2942  function unregisterSupplier(address _supplier) public onlyFunder {... */\n    tag_6:\n      tag_26\n      0x04\n      dup1\n      calldatasize\n      sub\n      dup2\n      add\n      swap1\n      tag_27\n      swap2\n      swap1\n      tag_28\n      jump\t// in\n    tag_27:\n      tag_29\n      jump\t// in\n    tag_26:\n      stop\n        /* \"SubsidyVoucher.sol\":1031:1073  mapping(address => bool) public isSupplier */\n    tag_7:\n      tag_30\n      0x04\n      dup1\n      calldatasize\n      sub\n      dup2\n      add\n      swap1\n      tag_31\n      swap2\n      swap1\n      tag_28\n      jump\t// in\n    tag_31:\n      tag_32\n      jump\t// in\n    tag_30:\n      mload(0x40)\n      tag_33\n      swap2\n      swap1\n      tag_34\n      jump\t// in\n    tag_33:\n      mload(0x40)\n      dup1\n      swap2\n      sub\n      swap1\n      return\n        /* \"SubsidyVoucher.sol\":3209:3863  function issueVoucher(address _farmer, uint256 _amount) public onlyFunder {... */\n    tag_8:\n      tag_35\n      0x04\n      dup1\n      calldatasize\n      sub\n      dup2\n      add\n      swap1\n      tag_36\n      swap2\n      swap1\n      tag_37\n      jump\t// in\n    tag_36:\n      tag_38\n      jump\t// in\n    tag_35:\n      stop\n        /* \"SubsidyVoucher.sol\":1138:1167  address[] public supplierList */\n    tag_9:\n      tag_39\n      0x04\n      dup1\n      calldatasize\n      sub\n      dup2\n      add\n      swap1\n      tag_40\n      swap2\n      swap1\n      tag_19\n      jump\t// in\n    tag_40:\n      tag_41\n      jump\t// in\n    tag_39:\n      mload(0x40)\n      tag_42\n      swap2\n      swap1\n      tag_16\n      jump\t// in\n    tag_42:\n      mload(0x40)\n      dup1\n      swap2\n      sub\n      swap1\n      return\n        /* \"SubsidyVoucher.sol\":3058:3162  function getAllSuppliers() public view returns (address[] memory) {... */\n    tag_10:\n      tag_43\n      tag_44\n      jump\t// in\n    tag_43:\n      mload(0x40)\n      tag_45\n      swap2\n      swap1\n      tag_46\n      jump\t// in\n    tag_45:\n      mload(0x40)\n      dup1\n      swap2\n      sub\n      swap1\n      return\n        /* \"SubsidyVoucher.sol\":2158:2488  function registerSupplier(address _supplier) public onlyFunder {... */\n    tag_11:\n      tag_47\n      0x04\n      dup1\n      calldatasize\n      sub\n      dup2\n      add\n      swap1\n      tag_48\n      swap2\n      swap1\n      tag_28\n      jump\t// in\n    tag_48:\n      tag_49\n      jump\t// in\n    tag_47:\n      stop\n        /* \"SubsidyVoucher.sol\":271:302  address public immutable funder */\n    tag_14:\n      immutable(\"0x13600b294191fc92924bb3ce4b969c1e7e2bab8f4c93c3fc6d0a51733df3c060\")\n      dup2\n      jump\t// out\n        /* \"SubsidyVoucher.sol\":3916:4637  function redeemVoucher(uint256 _voucherId) public {... */\n    tag_20:\n        /* \"SubsidyVoucher.sol\":3985:3995  isSupplier */\n      0x02\n        /* \"SubsidyVoucher.sol\":3985:4007  isSupplier[msg.sender] */\n      0x00\n        /* \"SubsidyVoucher.sol\":3996:4006  msg.sender */\n      caller\n        /* \"SubsidyVoucher.sol\":3985:4007  isSupplier[msg.sender] */\n      0xffffffffffffffffffffffffffffffffffffffff\n      and\n      0xffffffffffffffffffffffffffffffffffffffff\n      and\n      dup2\n      mstore\n      0x20\n      add\n      swap1\n      dup2\n      mstore\n      0x20\n      add\n      0x00\n      keccak256\n      0x00\n      swap1\n      sload\n      swap1\n      0x0100\n      exp\n      swap1\n      div\n      0xff\n      and\n        /* \"SubsidyVoucher.sol\":3977:4062  require(isSupplier[msg.sender], \"SV: Only a registered supplier can redeem vouchers\") */\n      tag_51\n      jumpi\n      mload(0x40)\n      0x08c379a000000000000000000000000000000000000000000000000000000000\n      dup2\n      mstore\n      0x04\n      add\n      tag_52\n      swap1\n      tag_53\n      jump\t// in\n    tag_52:\n      mload(0x40)\n      dup1\n      swap2\n      sub\n      swap1\n      revert\n    tag_51:\n        /* \"SubsidyVoucher.sol\":4094:4095  0 */\n      0x00\n        /* \"SubsidyVoucher.sol\":4081:4091  _voucherId */\n      dup2\n        /* \"SubsidyVoucher.sol\":4081:4095  _voucherId > 0 */\n      gt\n        /* \"SubsidyVoucher.sol\":4081:4127  _voucherId > 0 && _voucherId <= voucherCounter */\n      dup1\n      iszero\n      tag_54\n      jumpi\n      pop\n        /* \"SubsidyVoucher.sol\":4113:4127  voucherCounter */\n      sload(0x00)\n        /* \"SubsidyVoucher.sol\":4099:4109  _voucherId */\n      dup2\n        /* \"SubsidyVoucher.sol\":4099:4127  _voucherId <= voucherCounter */\n      gt\n      iszero\n        /* \"SubsidyVoucher.sol\":4081:4127  _voucherId > 0 && _voucherId <= voucherCounter */\n    tag_54:\n        /* \"SubsidyVoucher.sol\":4073:4154  require(_voucherId > 0 && _voucherId <= voucherCounter, \"SV: Invalid voucher ID\") */\n      tag_55\n      jumpi\n      mload(0x40)\n      0x08c379a000000000000000000000000000000000000000000000000000000000\n      dup2\n      mstore\n      0x04\n      add\n      tag_56\n      swap1\n      tag_57\n      jump\t// in\n    tag_56:\n      mload(0x40)\n      dup1\n      swap2\n      sub\n      swap1\n      revert\n    tag_55:\n        /* \"SubsidyVoucher.sol\":4175:4198  Voucher storage voucher */\n      0x00\n        /* \"SubsidyVoucher.sol\":4201:4209  vouchers */\n      0x01\n        /* \"SubsidyVoucher.sol\":4201:4221  vouchers[_voucherId] */\n      0x00\n        /* \"SubsidyVoucher.sol\":4210:4220  _voucherId */\n      dup4\n        /* \"SubsidyVoucher.sol\":4201:4221  vouchers[_voucherId] */\n      dup2\n      mstore\n      0x20\n      add\n      swap1\n      dup2\n      mstore\n      0x20\n      add\n      0x00\n      keccak256\n        /* \"SubsidyVoucher.sol\":4175:4221  Voucher storage voucher = vouchers[_voucherId] */\n      swap1\n      pop\n        /* \"SubsidyVoucher.sol\":4258:4271  Status.Issued */\n      0x00\n        /* \"SubsidyVoucher.sol\":4240:4271  voucher.status == Status.Issued */\n      0x02\n      dup2\n      gt\n      iszero\n      tag_58\n      jumpi\n      tag_59\n      tag_60\n      jump\t// in\n    tag_59:\n    tag_58:\n        /* \"SubsidyVoucher.sol\":4240:4247  voucher */\n      dup2\n        /* \"SubsidyVoucher.sol\":4240:4254  voucher.status */\n      0x06\n      add\n      0x00\n      swap1\n      sload\n      swap1\n      0x0100\n      exp\n      swap1\n      div\n      0xff\n      and\n        /* \"SubsidyVoucher.sol\":4240:4271  voucher.status == Status.Issued */\n      0x02\n      dup2\n      gt\n      iszero\n      tag_61\n      jumpi\n      tag_62\n      tag_60\n      jump\t// in\n    tag_62:\n    tag_61:\n      eq\n        /* \"SubsidyVoucher.sol\":4232:4311  require(voucher.status == Status.Issued, \"SV: Voucher is not in Issued status\") */\n      tag_63\n      jumpi\n      mload(0x40)\n      0x08c379a000000000000000000000000000000000000000000000000000000000\n      dup2\n      mstore\n      0x04\n      add\n      tag_64\n      swap1\n      tag_65\n      jump\t// in\n    tag_64:\n      mload(0x40)\n      dup1\n      swap2\n      sub\n      swap1\n      revert\n    tag_63:\n        /* \"SubsidyVoucher.sol\":4341:4356  Status.Redeemed */\n      0x01\n        /* \"SubsidyVoucher.sol\":4324:4331  voucher */\n      dup2\n        /* \"SubsidyVoucher.sol\":4324:4338  voucher.status */\n      0x06\n      add\n      0x00\n        /* \"SubsidyVoucher.sol\":4324:4356  voucher.status = Status.Redeemed */\n      0x0100\n      exp\n      dup2\n      sload\n      dup2\n      0xff\n      mul\n      not\n      and\n      swap1\n      dup4\n      0x02\n      dup2\n      gt\n      iszero\n      tag_66\n      jumpi\n      tag_67\n      tag_60\n      jump\t// in\n    tag_67:\n    tag_66:\n      mul\n      or\n      swap1\n      sstore\n      pop\n        /* \"SubsidyVoucher.sol\":4386:4396  msg.sender */\n      caller\n        /* \"SubsidyVoucher.sol\":4367:4374  voucher */\n      dup2\n        /* \"SubsidyVoucher.sol\":4367:4383  voucher.supplier */\n      0x04\n      add\n      0x00\n        /* \"SubsidyVoucher.sol\":4367:4396  voucher.supplier = msg.sender */\n      0x0100\n      exp\n      dup2\n      sload\n      dup2\n      0xffffffffffffffffffffffffffffffffffffffff\n      mul\n      not\n      and\n      swap1\n      dup4\n      0xffffffffffffffffffffffffffffffffffffffff\n      and\n      mul\n      or\n      swap1\n      sstore\n      pop\n        /* \"SubsidyVoucher.sol\":4432:4447  block.timestamp */\n      timestamp\n        /* \"SubsidyVoucher.sol\":4407:4414  voucher */\n      dup2\n        /* \"SubsidyVoucher.sol\":4407:4429  voucher.redemptionTime */\n      0x05\n      add\n        /* \"SubsidyVoucher.sol\":4407:4447  voucher.redemptionTime = block.timestamp */\n      dup2\n      swap1\n      sstore\n      pop\n        /* \"SubsidyVoucher.sol\":4520:4530  msg.sender */\n      caller\n        /* \"SubsidyVoucher.sol\":4465:4629  VoucherRedeemed(... */\n      0xffffffffffffffffffffffffffffffffffffffff\n      and\n        /* \"SubsidyVoucher.sol\":4495:4505  _voucherId */\n      dup3\n        /* \"SubsidyVoucher.sol\":4465:4629  VoucherRedeemed(... */\n      0xe1c9f4ef913b05e8722e196566e1d6bb4d48860d67fec002c8f261502b870bf6\n        /* \"SubsidyVoucher.sol\":4545:4552  voucher */\n      dup4\n        /* \"SubsidyVoucher.sol\":4545:4559  voucher.farmer */\n      0x01\n      add\n      0x00\n      swap1\n      sload\n      swap1\n      0x0100\n      exp\n      swap1\n      div\n      0xffffffffffffffffffffffffffffffffffffffff\n      and\n        /* \"SubsidyVoucher.sol\":4574:4581  voucher */\n      dup5\n        /* \"SubsidyVoucher.sol\":4574:4588  voucher.amount */\n      0x02\n      add\n      sload\n        /* \"SubsidyVoucher.sol\":4603:4618  block.timestamp */\n      timestamp\n        /* \"SubsidyVoucher.sol\":4465:4629  VoucherRedeemed(... */\n      mload(0x40)\n      tag_68\n      swap4\n      swap3\n      swap2\n      swap1\n      tag_69\n      jump\t// in\n    tag_68:\n      mload(0x40)\n      dup1\n      swap2\n      sub\n      swap1\n      log3\n        /* \"SubsidyVoucher.sol\":3966:4637  {... */\n      pop\n        /* \"SubsidyVoucher.sol\":3916:4637  function redeemVoucher(uint256 _voucherId) public {... */\n      pop\n      jump\t// out\n        /* \"SubsidyVoucher.sol\":912:955  mapping(uint256 => Voucher) public vouchers */\n    tag_23:\n      mstore(0x20, 0x01)\n      dup1\n      0x00\n      mstore\n      keccak256(0x00, 0x40)\n      0x00\n      swap2\n      pop\n      swap1\n      pop\n      dup1\n      0x00\n      add\n      sload\n      swap1\n      dup1\n      0x01\n      add\n      0x00\n      swap1\n      sload\n      swap1\n      0x0100\n      exp\n      swap1\n      div\n      0xffffffffffffffffffffffffffffffffffffffff\n      and\n      swap1\n      dup1\n      0x02\n      add\n      sload\n      swap1\n      dup1\n      0x03\n      add\n      sload\n      swap1\n      dup1\n      0x04\n      add\n      0x00\n      swap1\n      sload\n      swap1\n      0x0100\n      exp\n      swap1\n      div\n      0xffffffffffffffffffffffffffffffffffffffff\n      and\n      swap1\n      dup1\n      0x05\n      add\n      sload\n      swap1\n      dup1\n      0x06\n      add\n      0x00\n      swap1\n      sload\n      swap1\n      0x0100\n      exp\n      swap1\n      div\n      0xff\n      and\n      swap1\n      pop\n      dup8\n      jump\t// out\n        /* \"SubsidyVoucher.sol\":2719:2942  function unregisterSupplier(address _supplier) public onlyFunder {... */\n    tag_29:\n        /* \"SubsidyVoucher.sol\":1787:1793  funder */\n      immutable(\"0x13600b294191fc92924bb3ce4b969c1e7e2bab8f4c93c3fc6d0a51733df3c060\")\n        /* \"SubsidyVoucher.sol\":1773:1793  msg.sender == funder */\n      0xffffffffffffffffffffffffffffffffffffffff\n      and\n        /* \"SubsidyVoucher.sol\":1773:1783  msg.sender */\n      caller\n        /* \"SubsidyVoucher.sol\":1773:1793  msg.sender == funder */\n      0xffffffffffffffffffffffffffffffffffffffff\n      and\n      eq\n        /* \"SubsidyVoucher.sol\":1765:1840  require(msg.sender == funder, \"SV: Only the Funder can call this function\") */\n      tag_71\n      jumpi\n      mload(0x40)\n      0x08c379a000000000000000000000000000000000000000000000000000000000\n      dup2\n      mstore\n      0x04\n      add\n      tag_72\n      swap1\n      tag_73\n      jump\t// in\n    tag_72:\n      mload(0x40)\n      dup1\n      swap2\n      sub\n      swap1\n      revert\n    tag_71:\n        /* \"SubsidyVoucher.sol\":2803:2813  isSupplier */\n      0x02\n        /* \"SubsidyVoucher.sol\":2803:2824  isSupplier[_supplier] */\n      0x00\n        /* \"SubsidyVoucher.sol\":2814:2823  _supplier */\n      dup3\n        /* \"SubsidyVoucher.sol\":2803:2824  isSupplier[_supplier] */\n      0xffffffffffffffffffffffffffffffffffffffff\n      and\n      0xffffffffffffffffffffffffffffffffffffffff\n      and\n      dup2\n      mstore\n      0x20\n      add\n      swap1\n      dup2\n      mstore\n      0x20\n      add\n      0x00\n      keccak256\n      0x00\n      swap1\n      sload\n      swap1\n      0x0100\n      exp\n      swap1\n      div\n      0xff\n      and\n        /* \"SubsidyVoucher.sol\":2795:2847  require(isSupplier[_supplier], \"SV: Not a supplier\") */\n      tag_75\n      jumpi\n      mload(0x40)\n      0x08c379a000000000000000000000000000000000000000000000000000000000\n      dup2\n      mstore\n      0x04\n      add\n      tag_76\n      swap1\n      tag_77\n      jump\t// in\n    tag_76:\n      mload(0x40)\n      dup1\n      swap2\n      sub\n      swap1\n      revert\n    tag_75:\n        /* \"SubsidyVoucher.sol\":2882:2887  false */\n      0x00\n        /* \"SubsidyVoucher.sol\":2858:2868  isSupplier */\n      0x02\n        /* \"SubsidyVoucher.sol\":2858:2879  isSupplier[_supplier] */\n      0x00\n        /* \"SubsidyVoucher.sol\":2869:2878  _supplier */\n      dup4\n        /* \"SubsidyVoucher.sol\":2858:2879  isSupplier[_supplier] */\n      0xffffffffffffffffffffffffffffffffffffffff\n      and\n      0xffffffffffffffffffffffffffffffffffffffff\n      and\n      dup2\n      mstore\n      0x20\n      add\n      swap1\n      dup2\n      mstore\n      0x20\n      add\n      0x00\n      keccak256\n      0x00\n        /* \"SubsidyVoucher.sol\":2858:2887  isSupplier[_supplier] = false */\n      0x0100\n      exp\n      dup2\n      sload\n      dup2\n      0xff\n      mul\n      not\n      and\n      swap1\n      dup4\n      iszero\n      iszero\n      mul\n      or\n      swap1\n      sstore\n      pop\n        /* \"SubsidyVoucher.sol\":2924:2933  _supplier */\n      dup1\n        /* \"SubsidyVoucher.sol\":2903:2934  SupplierUnregistered(_supplier) */\n      0xffffffffffffffffffffffffffffffffffffffff\n      and\n      0xdb9c3bf1a929adafe0973e2a833e03ca444832c4285ee7bed344502e51ed993a\n      mload(0x40)\n      mload(0x40)\n      dup1\n      swap2\n      sub\n      swap1\n      log2\n        /* \"SubsidyVoucher.sol\":2719:2942  function unregisterSupplier(address _supplier) public onlyFunder {... */\n      pop\n      jump\t// out\n        /* \"SubsidyVoucher.sol\":1031:1073  mapping(address => bool) public isSupplier */\n    tag_32:\n      mstore(0x20, 0x02)\n      dup1\n      0x00\n      mstore\n      keccak256(0x00, 0x40)\n      0x00\n      swap2\n      pop\n      sload\n      swap1\n      0x0100\n      exp\n      swap1\n      div\n      0xff\n      and\n      dup2\n      jump\t// out\n        /* \"SubsidyVoucher.sol\":3209:3863  function issueVoucher(address _farmer, uint256 _amount) public onlyFunder {... */\n    tag_38:\n        /* \"SubsidyVoucher.sol\":1787:1793  funder */\n      immutable(\"0x13600b294191fc92924bb3ce4b969c1e7e2bab8f4c93c3fc6d0a51733df3c060\")\n        /* \"SubsidyVoucher.sol\":1773:1793  msg.sender == funder */\n      0xffffffffffffffffffffffffffffffffffffffff\n      and\n        /* \"SubsidyVoucher.sol\":1773:1783  msg.sender */\n      caller\n        /* \"SubsidyVoucher.sol\":1773:1793  msg.sender == funder */\n      0xffffffffffffffffffffffffffffffffffffffff\n      and\n      eq\n        /* \"SubsidyVoucher.sol\":1765:1840  require(msg.sender == funder, \"SV: Only the Funder can call this function\") */\n      tag_79\n      jumpi\n      mload(0x40)\n      0x08c379a000000000000000000000000000000000000000000000000000000000\n      dup2\n      mstore\n      0x04\n      add\n      tag_80\n      swap1\n      tag_73\n      jump\t// in\n    tag_80:\n      mload(0x40)\n      dup1\n      swap2\n      sub\n      swap1\n      revert\n    tag_79:\n        /* \"SubsidyVoucher.sol\":3321:3322  0 */\n      0x00\n        /* \"SubsidyVoucher.sol\":3302:3323  _farmer != address(0) */\n      0xffffffffffffffffffffffffffffffffffffffff\n      and\n        /* \"SubsidyVoucher.sol\":3302:3309  _farmer */\n      dup3\n        /* \"SubsidyVoucher.sol\":3302:3323  _farmer != address(0) */\n      0xffffffffffffffffffffffffffffffffffffffff\n      and\n      sub\n        /* \"SubsidyVoucher.sol\":3294:3354  require(_farmer != address(0), \"SV: Invalid farmer address\") */\n      tag_82\n      jumpi\n      mload(0x40)\n      0x08c379a000000000000000000000000000000000000000000000000000000000\n      dup2\n      mstore\n      0x04\n      add\n      tag_83\n      swap1\n      tag_84\n      jump\t// in\n    tag_83:\n      mload(0x40)\n      dup1\n      swap2\n      sub\n      swap1\n      revert\n    tag_82:\n        /* \"SubsidyVoucher.sol\":3383:3384  0 */\n      0x00\n        /* \"SubsidyVoucher.sol\":3373:3380  _amount */\n      dup2\n        /* \"SubsidyVoucher.sol\":3373:3384  _amount > 0 */\n      gt\n        /* \"SubsidyVoucher.sol\":3365:3425  require(_amount > 0, \"SV: Amount must be greater than zero\") */\n      tag_85\n      jumpi\n      mload(0x40)\n      0x08c379a000000000000000000000000000000000000000000000000000000000\n      dup2\n      mstore\n      0x04\n      add\n      tag_86\n      swap1\n      tag_87\n      jump\t// in\n    tag_86:\n      mload(0x40)\n      dup1\n      swap2\n      sub\n      swap1\n      revert\n    tag_85:\n        /* \"SubsidyVoucher.sol\":3438:3452  voucherCounter */\n      0x00\n      0x00\n        /* \"SubsidyVoucher.sol\":3438:3454  voucherCounter++ */\n      dup2\n      sload\n      dup1\n      swap3\n      swap2\n      swap1\n      tag_88\n      swap1\n      tag_89\n      jump\t// in\n    tag_88:\n      swap2\n      swap1\n      pop\n      sstore\n      pop\n        /* \"SubsidyVoucher.sol\":3465:3478  uint256 newId */\n      0x00\n        /* \"SubsidyVoucher.sol\":3481:3495  voucherCounter */\n      sload(0x00)\n        /* \"SubsidyVoucher.sol\":3465:3495  uint256 newId = voucherCounter */\n      swap1\n      pop\n        /* \"SubsidyVoucher.sol\":3534:3782  Voucher({... */\n      mload(0x40)\n      dup1\n      0xe0\n      add\n      0x40\n      mstore\n      dup1\n        /* \"SubsidyVoucher.sol\":3561:3566  newId */\n      dup3\n        /* \"SubsidyVoucher.sol\":3534:3782  Voucher({... */\n      dup2\n      mstore\n      0x20\n      add\n        /* \"SubsidyVoucher.sol\":3589:3596  _farmer */\n      dup5\n        /* \"SubsidyVoucher.sol\":3534:3782  Voucher({... */\n      0xffffffffffffffffffffffffffffffffffffffff\n      and\n      dup2\n      mstore\n      0x20\n      add\n        /* \"SubsidyVoucher.sol\":3619:3626  _amount */\n      dup4\n        /* \"SubsidyVoucher.sol\":3534:3782  Voucher({... */\n      dup2\n      mstore\n      0x20\n      add\n        /* \"SubsidyVoucher.sol\":3652:3667  block.timestamp */\n      timestamp\n        /* \"SubsidyVoucher.sol\":3534:3782  Voucher({... */\n      dup2\n      mstore\n      0x20\n      add\n        /* \"SubsidyVoucher.sol\":3700:3701  0 */\n      0x00\n        /* \"SubsidyVoucher.sol\":3534:3782  Voucher({... */\n      0xffffffffffffffffffffffffffffffffffffffff\n      and\n      dup2\n      mstore\n      0x20\n      add\n        /* \"SubsidyVoucher.sol\":3733:3734  0 */\n      0x00\n        /* \"SubsidyVoucher.sol\":3534:3782  Voucher({... */\n      dup2\n      mstore\n      0x20\n      add\n        /* \"SubsidyVoucher.sol\":3757:3770  Status.Issued */\n      0x00\n        /* \"SubsidyVoucher.sol\":3534:3782  Voucher({... */\n      0x02\n      dup2\n      gt\n      iszero\n      tag_90\n      jumpi\n      tag_91\n      tag_60\n      jump\t// in\n    tag_91:\n    tag_90:\n      dup2\n      mstore\n      pop\n        /* \"SubsidyVoucher.sol\":3516:3524  vouchers */\n      0x01\n        /* \"SubsidyVoucher.sol\":3516:3531  vouchers[newId] */\n      0x00\n        /* \"SubsidyVoucher.sol\":3525:3530  newId */\n      dup4\n        /* \"SubsidyVoucher.sol\":3516:3531  vouchers[newId] */\n      dup2\n      mstore\n      0x20\n      add\n      swap1\n      dup2\n      mstore\n      0x20\n      add\n      0x00\n      keccak256\n        /* \"SubsidyVoucher.sol\":3516:3782  vouchers[newId] = Voucher({... */\n      0x00\n      dup3\n      add\n      mload\n      dup2\n      0x00\n      add\n      sstore\n      0x20\n      dup3\n      add\n      mload\n      dup2\n      0x01\n      add\n      exp(0x0100, 0x00)\n      dup2\n      sload\n      dup2\n      0xffffffffffffffffffffffffffffffffffffffff\n      mul\n      not\n      and\n      swap1\n      dup4\n      0xffffffffffffffffffffffffffffffffffffffff\n      and\n      mul\n      or\n      swap1\n      sstore\n      pop\n      0x40\n      dup3\n      add\n      mload\n      dup2\n      0x02\n      add\n      sstore\n      0x60\n      dup3\n      add\n      mload\n      dup2\n      0x03\n      add\n      sstore\n      0x80\n      dup3\n      add\n      mload\n      dup2\n      0x04\n      add\n      exp(0x0100, 0x00)\n      dup2\n      sload\n      dup2\n      0xffffffffffffffffffffffffffffffffffffffff\n      mul\n      not\n      and\n      swap1\n      dup4\n      0xffffffffffffffffffffffffffffffffffffffff\n      and\n      mul\n      or\n      swap1\n      sstore\n      pop\n      0xa0\n      dup3\n      add\n      mload\n      dup2\n      0x05\n      add\n      sstore\n      0xc0\n      dup3\n      add\n      mload\n      dup2\n      0x06\n      add\n      exp(0x0100, 0x00)\n      dup2\n      sload\n      dup2\n      0xff\n      mul\n      not\n      and\n      swap1\n      dup4\n      0x02\n      dup2\n      gt\n      iszero\n      tag_92\n      jumpi\n      tag_93\n      tag_60\n      jump\t// in\n    tag_93:\n    tag_92:\n      mul\n      or\n      swap1\n      sstore\n      pop\n      swap1\n      pop\n      pop\n        /* \"SubsidyVoucher.sol\":3821:3828  _farmer */\n      dup3\n        /* \"SubsidyVoucher.sol\":3800:3855  VoucherIssued(newId, _farmer, _amount, block.timestamp) */\n      0xffffffffffffffffffffffffffffffffffffffff\n      and\n        /* \"SubsidyVoucher.sol\":3814:3819  newId */\n      dup2\n        /* \"SubsidyVoucher.sol\":3800:3855  VoucherIssued(newId, _farmer, _amount, block.timestamp) */\n      0x84e75fadd10326e7012a13061a6f00977857d4ea481f7b048d5654bcaa77e4d1\n        /* \"SubsidyVoucher.sol\":3830:3837  _amount */\n      dup5\n        /* \"SubsidyVoucher.sol\":3839:3854  block.timestamp */\n      timestamp\n        /* \"SubsidyVoucher.sol\":3800:3855  VoucherIssued(newId, _farmer, _amount, block.timestamp) */\n      mload(0x40)\n      tag_94\n      swap3\n      swap2\n      swap1\n      tag_95\n      jump\t// in\n    tag_94:\n      mload(0x40)\n      dup1\n      swap2\n      sub\n      swap1\n      log3\n        /* \"SubsidyVoucher.sol\":3283:3863  {... */\n      pop\n        /* \"SubsidyVoucher.sol\":3209:3863  function issueVoucher(address _farmer, uint256 _amount) public onlyFunder {... */\n      pop\n      pop\n      jump\t// out\n        /* \"SubsidyVoucher.sol\":1138:1167  address[] public supplierList */\n    tag_41:\n      0x03\n      dup2\n      dup2\n      sload\n      dup2\n      lt\n      tag_96\n      jumpi\n      0x00\n      dup1\n      revert\n    tag_96:\n      swap1\n      0x00\n      mstore\n      keccak256(0x00, 0x20)\n      add\n      0x00\n      swap2\n      pop\n      sload\n      swap1\n      0x0100\n      exp\n      swap1\n      div\n      0xffffffffffffffffffffffffffffffffffffffff\n      and\n      dup2\n      jump\t// out\n        /* \"SubsidyVoucher.sol\":3058:3162  function getAllSuppliers() public view returns (address[] memory) {... */\n    tag_44:\n        /* \"SubsidyVoucher.sol\":3106:3122  address[] memory */\n      0x60\n        /* \"SubsidyVoucher.sol\":3142:3154  supplierList */\n      0x03\n        /* \"SubsidyVoucher.sol\":3135:3154  return supplierList */\n      dup1\n      sload\n      dup1\n      0x20\n      mul\n      0x20\n      add\n      mload(0x40)\n      swap1\n      dup2\n      add\n      0x40\n      mstore\n      dup1\n      swap3\n      swap2\n      swap1\n      dup2\n      dup2\n      mstore\n      0x20\n      add\n      dup3\n      dup1\n      sload\n      dup1\n      iszero\n      tag_99\n      jumpi\n      0x20\n      mul\n      dup3\n      add\n      swap2\n      swap1\n      0x00\n      mstore\n      keccak256(0x00, 0x20)\n      swap1\n    tag_100:\n      dup2\n      0x00\n      swap1\n      sload\n      swap1\n      0x0100\n      exp\n      swap1\n      div\n      0xffffffffffffffffffffffffffffffffffffffff\n      and\n      0xffffffffffffffffffffffffffffffffffffffff\n      and\n      dup2\n      mstore\n      0x20\n      add\n      swap1\n      0x01\n      add\n      swap1\n      dup1\n      dup4\n      gt\n      tag_100\n      jumpi\n    tag_99:\n      pop\n      pop\n      pop\n      pop\n      pop\n      swap1\n      pop\n        /* \"SubsidyVoucher.sol\":3058:3162  function getAllSuppliers() public view returns (address[] memory) {... */\n      swap1\n      jump\t// out\n        /* \"SubsidyVoucher.sol\":2158:2488  function registerSupplier(address _supplier) public onlyFunder {... */\n    tag_49:\n        /* \"SubsidyVoucher.sol\":1787:1793  funder */\n      immutable(\"0x13600b294191fc92924bb3ce4b969c1e7e2bab8f4c93c3fc6d0a51733df3c060\")\n        /* \"SubsidyVoucher.sol\":1773:1793  msg.sender == funder */\n      0xffffffffffffffffffffffffffffffffffffffff\n      and\n        /* \"SubsidyVoucher.sol\":1773:1783  msg.sender */\n      caller\n        /* \"SubsidyVoucher.sol\":1773:1793  msg.sender == funder */\n      0xffffffffffffffffffffffffffffffffffffffff\n      and\n      eq\n        /* \"SubsidyVoucher.sol\":1765:1840  require(msg.sender == funder, \"SV: Only the Funder can call this function\") */\n      tag_102\n      jumpi\n      mload(0x40)\n      0x08c379a000000000000000000000000000000000000000000000000000000000\n      dup2\n      mstore\n      0x04\n      add\n      tag_103\n      swap1\n      tag_73\n      jump\t// in\n    tag_103:\n      mload(0x40)\n      dup1\n      swap2\n      sub\n      swap1\n      revert\n    tag_102:\n        /* \"SubsidyVoucher.sol\":2261:2262  0 */\n      0x00\n        /* \"SubsidyVoucher.sol\":2240:2263  _supplier != address(0) */\n      0xffffffffffffffffffffffffffffffffffffffff\n      and\n        /* \"SubsidyVoucher.sol\":2240:2249  _supplier */\n      dup2\n        /* \"SubsidyVoucher.sol\":2240:2263  _supplier != address(0) */\n      0xffffffffffffffffffffffffffffffffffffffff\n      and\n      sub\n        /* \"SubsidyVoucher.sol\":2232:2287  require(_supplier != address(0), \"SV: Invalid address\") */\n      tag_105\n      jumpi\n      mload(0x40)\n      0x08c379a000000000000000000000000000000000000000000000000000000000\n      dup2\n      mstore\n      0x04\n      add\n      tag_106\n      swap1\n      tag_107\n      jump\t// in\n    tag_106:\n      mload(0x40)\n      dup1\n      swap2\n      sub\n      swap1\n      revert\n    tag_105:\n        /* \"SubsidyVoucher.sol\":2307:2317  isSupplier */\n      0x02\n        /* \"SubsidyVoucher.sol\":2307:2328  isSupplier[_supplier] */\n      0x00\n        /* \"SubsidyVoucher.sol\":2318:2327  _supplier */\n      dup3\n        /* \"SubsidyVoucher.sol\":2307:2328  isSupplier[_supplier] */\n      0xffffffffffffffffffffffffffffffffffffffff\n      and\n      0xffffffffffffffffffffffffffffffffffffffff\n      and\n      dup2\n      mstore\n      0x20\n      add\n      swap1\n      dup2\n      mstore\n      0x20\n      add\n      0x00\n      keccak256\n      0x00\n      swap1\n      sload\n      swap1\n      0x0100\n      exp\n      swap1\n      div\n      0xff\n      and\n        /* \"SubsidyVoucher.sol\":2306:2328  !isSupplier[_supplier] */\n      iszero\n        /* \"SubsidyVoucher.sol\":2298:2355  require(!isSupplier[_supplier], \"SV: Already registered\") */\n      tag_108\n      jumpi\n      mload(0x40)\n      0x08c379a000000000000000000000000000000000000000000000000000000000\n      dup2\n      mstore\n      0x04\n      add\n      tag_109\n      swap1\n      tag_110\n      jump\t// in\n    tag_109:\n      mload(0x40)\n      dup1\n      swap2\n      sub\n      swap1\n      revert\n    tag_108:\n        /* \"SubsidyVoucher.sol\":2392:2396  true */\n      0x01\n        /* \"SubsidyVoucher.sol\":2368:2378  isSupplier */\n      0x02\n        /* \"SubsidyVoucher.sol\":2368:2389  isSupplier[_supplier] */\n      0x00\n        /* \"SubsidyVoucher.sol\":2379:2388  _supplier */\n      dup4\n        /* \"SubsidyVoucher.sol\":2368:2389  isSupplier[_supplier] */\n      0xffffffffffffffffffffffffffffffffffffffff\n      and\n      0xffffffffffffffffffffffffffffffffffffffff\n      and\n      dup2\n      mstore\n      0x20\n      add\n      swap1\n      dup2\n      mstore\n      0x20\n      add\n      0x00\n      keccak256\n      0x00\n        /* \"SubsidyVoucher.sol\":2368:2396  isSupplier[_supplier] = true */\n      0x0100\n      exp\n      dup2\n      sload\n      dup2\n      0xff\n      mul\n      not\n      and\n      swap1\n      dup4\n      iszero\n      iszero\n      mul\n      or\n      swap1\n      sstore\n      pop\n        /* \"SubsidyVoucher.sol\":2407:2419  supplierList */\n      0x03\n        /* \"SubsidyVoucher.sol\":2425:2434  _supplier */\n      dup2\n        /* \"SubsidyVoucher.sol\":2407:2435  supplierList.push(_supplier) */\n      swap1\n      dup1\n      0x01\n      dup2\n      sload\n      add\n      dup1\n      dup3\n      sstore\n      dup1\n      swap2\n      pop\n      pop\n      0x01\n      swap1\n      sub\n      swap1\n      0x00\n      mstore\n      keccak256(0x00, 0x20)\n      add\n      0x00\n      swap1\n      swap2\n      swap1\n      swap2\n      swap1\n      swap2\n      0x0100\n      exp\n      dup2\n      sload\n      dup2\n      0xffffffffffffffffffffffffffffffffffffffff\n      mul\n      not\n      and\n      swap1\n      dup4\n      0xffffffffffffffffffffffffffffffffffffffff\n      and\n      mul\n      or\n      swap1\n      sstore\n      pop\n        /* \"SubsidyVoucher.sol\":2470:2479  _supplier */\n      dup1\n        /* \"SubsidyVoucher.sol\":2451:2480  SupplierRegistered(_supplier) */\n      0xffffffffffffffffffffffffffffffffffffffff\n      and\n      0xbcffc870b52d3cb785b17c2c7426be70f9181ce49c43cc7b479ebcfac2d7a1c8\n      mload(0x40)\n      mload(0x40)\n      dup1\n      swap2\n      sub\n      swap1\n      log2\n        /* \"SubsidyVoucher.sol\":2158:2488  function registerSupplier(address _supplier) public onlyFunder {... */\n      pop\n      jump\t// out\n        /* \"#utility.yul\":7:133   */\n    tag_112:\n        /* \"#utility.yul\":44:51   */\n      0x00\n        /* \"#utility.yul\":84:126   */\n      0xffffffffffffffffffffffffffffffffffffffff\n        /* \"#utility.yul\":77:82   */\n      dup3\n        /* \"#utility.yul\":73:127   */\n      and\n        /* \"#utility.yul\":62:127   */\n      swap1\n      pop\n        /* \"#utility.yul\":7:133   */\n      swap2\n      swap1\n      pop\n      jump\t// out\n        /* \"#utility.yul\":139:235   */\n    tag_113:\n        /* \"#utility.yul\":176:183   */\n      0x00\n        /* \"#utility.yul\":205:229   */\n      tag_160\n        /* \"#utility.yul\":223:228   */\n      dup3\n        /* \"#utility.yul\":205:229   */\n      tag_112\n      jump\t// in\n    tag_160:\n        /* \"#utility.yul\":194:229   */\n      swap1\n      pop\n        /* \"#utility.yul\":139:235   */\n      swap2\n      swap1\n      pop\n      jump\t// out\n        /* \"#utility.yul\":241:359   */\n    tag_114:\n        /* \"#utility.yul\":328:352   */\n      tag_162\n        /* \"#utility.yul\":346:351   */\n      dup2\n        /* \"#utility.yul\":328:352   */\n      tag_113\n      jump\t// in\n    tag_162:\n        /* \"#utility.yul\":323:326   */\n      dup3\n        /* \"#utility.yul\":316:353   */\n      mstore\n        /* \"#utility.yul\":241:359   */\n      pop\n      pop\n      jump\t// out\n        /* \"#utility.yul\":365:587   */\n    tag_16:\n        /* \"#utility.yul\":458:462   */\n      0x00\n        /* \"#utility.yul\":496:498   */\n      0x20\n        /* \"#utility.yul\":485:494   */\n      dup3\n        /* \"#utility.yul\":481:499   */\n      add\n        /* \"#utility.yul\":473:499   */\n      swap1\n      pop\n        /* \"#utility.yul\":509:580   */\n      tag_164\n        /* \"#utility.yul\":577:578   */\n      0x00\n        /* \"#utility.yul\":566:575   */\n      dup4\n        /* \"#utility.yul\":562:579   */\n      add\n        /* \"#utility.yul\":553:559   */\n      dup5\n        /* \"#utility.yul\":509:580   */\n      tag_114\n      jump\t// in\n    tag_164:\n        /* \"#utility.yul\":365:587   */\n      swap3\n      swap2\n      pop\n      pop\n      jump\t// out\n        /* \"#utility.yul\":674:791   */\n    tag_116:\n        /* \"#utility.yul\":783:784   */\n      0x00\n        /* \"#utility.yul\":780:781   */\n      0x00\n        /* \"#utility.yul\":773:785   */\n      revert\n        /* \"#utility.yul\":920:997   */\n    tag_118:\n        /* \"#utility.yul\":957:964   */\n      0x00\n        /* \"#utility.yul\":986:991   */\n      dup2\n        /* \"#utility.yul\":975:991   */\n      swap1\n      pop\n        /* \"#utility.yul\":920:997   */\n      swap2\n      swap1\n      pop\n      jump\t// out\n        /* \"#utility.yul\":1003:1125   */\n    tag_119:\n        /* \"#utility.yul\":1076:1100   */\n      tag_170\n        /* \"#utility.yul\":1094:1099   */\n      dup2\n        /* \"#utility.yul\":1076:1100   */\n      tag_118\n      jump\t// in\n    tag_170:\n        /* \"#utility.yul\":1069:1074   */\n      dup2\n        /* \"#utility.yul\":1066:1101   */\n      eq\n        /* \"#utility.yul\":1056:1119   */\n      tag_171\n      jumpi\n        /* \"#utility.yul\":1115:1116   */\n      0x00\n        /* \"#utility.yul\":1112:1113   */\n      0x00\n        /* \"#utility.yul\":1105:1117   */\n      revert\n        /* \"#utility.yul\":1056:1119   */\n    tag_171:\n        /* \"#utility.yul\":1003:1125   */\n      pop\n      jump\t// out\n        /* \"#utility.yul\":1131:1270   */\n    tag_120:\n        /* \"#utility.yul\":1177:1182   */\n      0x00\n        /* \"#utility.yul\":1215:1221   */\n      dup2\n        /* \"#utility.yul\":1202:1222   */\n      calldataload\n        /* \"#utility.yul\":1193:1222   */\n      swap1\n      pop\n        /* \"#utility.yul\":1231:1264   */\n      tag_173\n        /* \"#utility.yul\":1258:1263   */\n      dup2\n        /* \"#utility.yul\":1231:1264   */\n      tag_119\n      jump\t// in\n    tag_173:\n        /* \"#utility.yul\":1131:1270   */\n      swap3\n      swap2\n      pop\n      pop\n      jump\t// out\n        /* \"#utility.yul\":1276:1605   */\n    tag_19:\n        /* \"#utility.yul\":1335:1341   */\n      0x00\n        /* \"#utility.yul\":1384:1386   */\n      0x20\n        /* \"#utility.yul\":1372:1381   */\n      dup3\n        /* \"#utility.yul\":1363:1370   */\n      dup5\n        /* \"#utility.yul\":1359:1382   */\n      sub\n        /* \"#utility.yul\":1355:1387   */\n      slt\n        /* \"#utility.yul\":1352:1471   */\n      iszero\n      tag_175\n      jumpi\n        /* \"#utility.yul\":1390:1469   */\n      tag_176\n      tag_116\n      jump\t// in\n    tag_176:\n        /* \"#utility.yul\":1352:1471   */\n    tag_175:\n        /* \"#utility.yul\":1510:1511   */\n      0x00\n        /* \"#utility.yul\":1535:1588   */\n      tag_177\n        /* \"#utility.yul\":1580:1587   */\n      dup5\n        /* \"#utility.yul\":1571:1577   */\n      dup3\n        /* \"#utility.yul\":1560:1569   */\n      dup6\n        /* \"#utility.yul\":1556:1578   */\n      add\n        /* \"#utility.yul\":1535:1588   */\n      tag_120\n      jump\t// in\n    tag_177:\n        /* \"#utility.yul\":1525:1588   */\n      swap2\n      pop\n        /* \"#utility.yul\":1481:1598   */\n      pop\n        /* \"#utility.yul\":1276:1605   */\n      swap3\n      swap2\n      pop\n      pop\n      jump\t// out\n        /* \"#utility.yul\":1611:1729   */\n    tag_121:\n        /* \"#utility.yul\":1698:1722   */\n      tag_179\n        /* \"#utility.yul\":1716:1721   */\n      dup2\n        /* \"#utility.yul\":1698:1722   */\n      tag_118\n      jump\t// in\n    tag_179:\n        /* \"#utility.yul\":1693:1696   */\n      dup3\n        /* \"#utility.yul\":1686:1723   */\n      mstore\n        /* \"#utility.yul\":1611:1729   */\n      pop\n      pop\n      jump\t// out\n        /* \"#utility.yul\":1735:1915   */\n    tag_60:\n        /* \"#utility.yul\":1783:1860   */\n      0x4e487b7100000000000000000000000000000000000000000000000000000000\n        /* \"#utility.yul\":1780:1781   */\n      0x00\n        /* \"#utility.yul\":1773:1861   */\n      mstore\n        /* \"#utility.yul\":1880:1884   */\n      0x21\n        /* \"#utility.yul\":1877:1878   */\n      0x04\n        /* \"#utility.yul\":1870:1885   */\n      mstore\n        /* \"#utility.yul\":1904:1908   */\n      0x24\n        /* \"#utility.yul\":1901:1902   */\n      0x00\n        /* \"#utility.yul\":1894:1909   */\n      revert\n        /* \"#utility.yul\":1921:2035   */\n    tag_122:\n        /* \"#utility.yul\":2003:2004   */\n      0x03\n        /* \"#utility.yul\":1996:2001   */\n      dup2\n        /* \"#utility.yul\":1993:2005   */\n      lt\n        /* \"#utility.yul\":1983:2029   */\n      tag_182\n      jumpi\n        /* \"#utility.yul\":2009:2027   */\n      tag_183\n      tag_60\n      jump\t// in\n    tag_183:\n        /* \"#utility.yul\":1983:2029   */\n    tag_182:\n        /* \"#utility.yul\":1921:2035   */\n      pop\n      jump\t// out\n        /* \"#utility.yul\":2041:2170   */\n    tag_123:\n        /* \"#utility.yul\":2087:2094   */\n      0x00\n        /* \"#utility.yul\":2116:2121   */\n      dup2\n        /* \"#utility.yul\":2105:2121   */\n      swap1\n      pop\n        /* \"#utility.yul\":2122:2164   */\n      tag_185\n        /* \"#utility.yul\":2158:2163   */\n      dup3\n        /* \"#utility.yul\":2122:2164   */\n      tag_122\n      jump\t// in\n    tag_185:\n        /* \"#utility.yul\":2041:2170   */\n      swap2\n      swap1\n      pop\n      jump\t// out\n        /* \"#utility.yul\":2176:2305   */\n    tag_124:\n        /* \"#utility.yul\":2233:2242   */\n      0x00\n        /* \"#utility.yul\":2266:2299   */\n      tag_187\n        /* \"#utility.yul\":2293:2298   */\n      dup3\n        /* \"#utility.yul\":2266:2299   */\n      tag_123\n      jump\t// in\n    tag_187:\n        /* \"#utility.yul\":2253:2299   */\n      swap1\n      pop\n        /* \"#utility.yul\":2176:2305   */\n      swap2\n      swap1\n      pop\n      jump\t// out\n        /* \"#utility.yul\":2311:2456   */\n    tag_125:\n        /* \"#utility.yul\":2405:2449   */\n      tag_189\n        /* \"#utility.yul\":2443:2448   */\n      dup2\n        /* \"#utility.yul\":2405:2449   */\n      tag_124\n      jump\t// in\n    tag_189:\n        /* \"#utility.yul\":2400:2403   */\n      dup3\n        /* \"#utility.yul\":2393:2450   */\n      mstore\n        /* \"#utility.yul\":2311:2456   */\n      pop\n      pop\n      jump\t// out\n        /* \"#utility.yul\":2462:3362   */\n    tag_25:\n        /* \"#utility.yul\":2730:2734   */\n      0x00\n        /* \"#utility.yul\":2768:2771   */\n      0xe0\n        /* \"#utility.yul\":2757:2766   */\n      dup3\n        /* \"#utility.yul\":2753:2772   */\n      add\n        /* \"#utility.yul\":2745:2772   */\n      swap1\n      pop\n        /* \"#utility.yul\":2782:2853   */\n      tag_191\n        /* \"#utility.yul\":2850:2851   */\n      0x00\n        /* \"#utility.yul\":2839:2848   */\n      dup4\n        /* \"#utility.yul\":2835:2852   */\n      add\n        /* \"#utility.yul\":2826:2832   */\n      dup11\n        /* \"#utility.yul\":2782:2853   */\n      tag_121\n      jump\t// in\n    tag_191:\n        /* \"#utility.yul\":2863:2935   */\n      tag_192\n        /* \"#utility.yul\":2931:2933   */\n      0x20\n        /* \"#utility.yul\":2920:2929   */\n      dup4\n        /* \"#utility.yul\":2916:2934   */\n      add\n        /* \"#utility.yul\":2907:2913   */\n      dup10\n        /* \"#utility.yul\":2863:2935   */\n      tag_114\n      jump\t// in\n    tag_192:\n        /* \"#utility.yul\":2945:3017   */\n      tag_193\n        /* \"#utility.yul\":3013:3015   */\n      0x40\n        /* \"#utility.yul\":3002:3011   */\n      dup4\n        /* \"#utility.yul\":2998:3016   */\n      add\n        /* \"#utility.yul\":2989:2995   */\n      dup9\n        /* \"#utility.yul\":2945:3017   */\n      tag_121\n      jump\t// in\n    tag_193:\n        /* \"#utility.yul\":3027:3099   */\n      tag_194\n        /* \"#utility.yul\":3095:3097   */\n      0x60\n        /* \"#utility.yul\":3084:3093   */\n      dup4\n        /* \"#utility.yul\":3080:3098   */\n      add\n        /* \"#utility.yul\":3071:3077   */\n      dup8\n        /* \"#utility.yul\":3027:3099   */\n      tag_121\n      jump\t// in\n    tag_194:\n        /* \"#utility.yul\":3109:3182   */\n      tag_195\n        /* \"#utility.yul\":3177:3180   */\n      0x80\n        /* \"#utility.yul\":3166:3175   */\n      dup4\n        /* \"#utility.yul\":3162:3181   */\n      add\n        /* \"#utility.yul\":3153:3159   */\n      dup7\n        /* \"#utility.yul\":3109:3182   */\n      tag_114\n      jump\t// in\n    tag_195:\n        /* \"#utility.yul\":3192:3265   */\n      tag_196\n        /* \"#utility.yul\":3260:3263   */\n      0xa0\n        /* \"#utility.yul\":3249:3258   */\n      dup4\n        /* \"#utility.yul\":3245:3264   */\n      add\n        /* \"#utility.yul\":3236:3242   */\n      dup6\n        /* \"#utility.yul\":3192:3265   */\n      tag_121\n      jump\t// in\n    tag_196:\n        /* \"#utility.yul\":3275:3355   */\n      tag_197\n        /* \"#utility.yul\":3350:3353   */\n      0xc0\n        /* \"#utility.yul\":3339:3348   */\n      dup4\n        /* \"#utility.yul\":3335:3354   */\n      add\n        /* \"#utility.yul\":3326:3332   */\n      dup5\n        /* \"#utility.yul\":3275:3355   */\n      tag_125\n      jump\t// in\n    tag_197:\n        /* \"#utility.yul\":2462:3362   */\n      swap9\n      swap8\n      pop\n      pop\n      pop\n      pop\n      pop\n      pop\n      pop\n      pop\n      jump\t// out\n        /* \"#utility.yul\":3368:3490   */\n    tag_126:\n        /* \"#utility.yul\":3441:3465   */\n      tag_199\n        /* \"#utility.yul\":3459:3464   */\n      dup2\n        /* \"#utility.yul\":3441:3465   */\n      tag_113\n      jump\t// in\n    tag_199:\n        /* \"#utility.yul\":3434:3439   */\n      dup2\n        /* \"#utility.yul\":3431:3466   */\n      eq\n        /* \"#utility.yul\":3421:3484   */\n      tag_200\n      jumpi\n        /* \"#utility.yul\":3480:3481   */\n      0x00\n        /* \"#utility.yul\":3477:3478   */\n      0x00\n        /* \"#utility.yul\":3470:3482   */\n      revert\n        /* \"#utility.yul\":3421:3484   */\n    tag_200:\n        /* \"#utility.yul\":3368:3490   */\n      pop\n      jump\t// out\n        /* \"#utility.yul\":3496:3635   */\n    tag_127:\n        /* \"#utility.yul\":3542:3547   */\n      0x00\n        /* \"#utility.yul\":3580:3586   */\n      dup2\n        /* \"#utility.yul\":3567:3587   */\n      calldataload\n        /* \"#utility.yul\":3558:3587   */\n      swap1\n      pop\n        /* \"#utility.yul\":3596:3629   */\n      tag_202\n        /* \"#utility.yul\":3623:3628   */\n      dup2\n        /* \"#utility.yul\":3596:3629   */\n      tag_126\n      jump\t// in\n    tag_202:\n        /* \"#utility.yul\":3496:3635   */\n      swap3\n      swap2\n      pop\n      pop\n      jump\t// out\n        /* \"#utility.yul\":3641:3970   */\n    tag_28:\n        /* \"#utility.yul\":3700:3706   */\n      0x00\n        /* \"#utility.yul\":3749:3751   */\n      0x20\n        /* \"#utility.yul\":3737:3746   */\n      dup3\n        /* \"#utility.yul\":3728:3735   */\n      dup5\n        /* \"#utility.yul\":3724:3747   */\n      sub\n        /* \"#utility.yul\":3720:3752   */\n      slt\n        /* \"#utility.yul\":3717:3836   */\n      iszero\n      tag_204\n      jumpi\n        /* \"#utility.yul\":3755:3834   */\n      tag_205\n      tag_116\n      jump\t// in\n    tag_205:\n        /* \"#utility.yul\":3717:3836   */\n    tag_204:\n        /* \"#utility.yul\":3875:3876   */\n      0x00\n        /* \"#utility.yul\":3900:3953   */\n      tag_206\n        /* \"#utility.yul\":3945:3952   */\n      dup5\n        /* \"#utility.yul\":3936:3942   */\n      dup3\n        /* \"#utility.yul\":3925:3934   */\n      dup6\n        /* \"#utility.yul\":3921:3943   */\n      add\n        /* \"#utility.yul\":3900:3953   */\n      tag_127\n      jump\t// in\n    tag_206:\n        /* \"#utility.yul\":3890:3953   */\n      swap2\n      pop\n        /* \"#utility.yul\":3846:3963   */\n      pop\n        /* \"#utility.yul\":3641:3970   */\n      swap3\n      swap2\n      pop\n      pop\n      jump\t// out\n        /* \"#utility.yul\":3976:4066   */\n    tag_128:\n        /* \"#utility.yul\":4010:4017   */\n      0x00\n        /* \"#utility.yul\":4053:4058   */\n      dup2\n        /* \"#utility.yul\":4046:4059   */\n      iszero\n        /* \"#utility.yul\":4039:4060   */\n      iszero\n        /* \"#utility.yul\":4028:4060   */\n      swap1\n      pop\n        /* \"#utility.yul\":3976:4066   */\n      swap2\n      swap1\n      pop\n      jump\t// out\n        /* \"#utility.yul\":4072:4181   */\n    tag_129:\n        /* \"#utility.yul\":4153:4174   */\n      tag_209\n        /* \"#utility.yul\":4168:4173   */\n      dup2\n        /* \"#utility.yul\":4153:4174   */\n      tag_128\n      jump\t// in\n    tag_209:\n        /* \"#utility.yul\":4148:4151   */\n      dup3\n        /* \"#utility.yul\":4141:4175   */\n      mstore\n        /* \"#utility.yul\":4072:4181   */\n      pop\n      pop\n      jump\t// out\n        /* \"#utility.yul\":4187:4397   */\n    tag_34:\n        /* \"#utility.yul\":4274:4278   */\n      0x00\n        /* \"#utility.yul\":4312:4314   */\n      0x20\n        /* \"#utility.yul\":4301:4310   */\n      dup3\n        /* \"#utility.yul\":4297:4315   */\n      add\n        /* \"#utility.yul\":4289:4315   */\n      swap1\n      pop\n        /* \"#utility.yul\":4325:4390   */\n      tag_211\n        /* \"#utility.yul\":4387:4388   */\n      0x00\n        /* \"#utility.yul\":4376:4385   */\n      dup4\n        /* \"#utility.yul\":4372:4389   */\n      add\n        /* \"#utility.yul\":4363:4369   */\n      dup5\n        /* \"#utility.yul\":4325:4390   */\n      tag_129\n      jump\t// in\n    tag_211:\n        /* \"#utility.yul\":4187:4397   */\n      swap3\n      swap2\n      pop\n      pop\n      jump\t// out\n        /* \"#utility.yul\":4403:4877   */\n    tag_37:\n        /* \"#utility.yul\":4471:4477   */\n      0x00\n        /* \"#utility.yul\":4479:4485   */\n      0x00\n        /* \"#utility.yul\":4528:4530   */\n      0x40\n        /* \"#utility.yul\":4516:4525   */\n      dup4\n        /* \"#utility.yul\":4507:4514   */\n      dup6\n        /* \"#utility.yul\":4503:4526   */\n      sub\n        /* \"#utility.yul\":4499:4531   */\n      slt\n        /* \"#utility.yul\":4496:4615   */\n      iszero\n      tag_213\n      jumpi\n        /* \"#utility.yul\":4534:4613   */\n      tag_214\n      tag_116\n      jump\t// in\n    tag_214:\n        /* \"#utility.yul\":4496:4615   */\n    tag_213:\n        /* \"#utility.yul\":4654:4655   */\n      0x00\n        /* \"#utility.yul\":4679:4732   */\n      tag_215\n        /* \"#utility.yul\":4724:4731   */\n      dup6\n        /* \"#utility.yul\":4715:4721   */\n      dup3\n        /* \"#utility.yul\":4704:4713   */\n      dup7\n        /* \"#utility.yul\":4700:4722   */\n      add\n        /* \"#utility.yul\":4679:4732   */\n      tag_127\n      jump\t// in\n    tag_215:\n        /* \"#utility.yul\":4669:4732   */\n      swap3\n      pop\n        /* \"#utility.yul\":4625:4742   */\n      pop\n        /* \"#utility.yul\":4781:4783   */\n      0x20\n        /* \"#utility.yul\":4807:4860   */\n      tag_216\n        /* \"#utility.yul\":4852:4859   */\n      dup6\n        /* \"#utility.yul\":4843:4849   */\n      dup3\n        /* \"#utility.yul\":4832:4841   */\n      dup7\n        /* \"#utility.yul\":4828:4850   */\n      add\n        /* \"#utility.yul\":4807:4860   */\n      tag_120\n      jump\t// in\n    tag_216:\n        /* \"#utility.yul\":4797:4860   */\n      swap2\n      pop\n        /* \"#utility.yul\":4752:4870   */\n      pop\n        /* \"#utility.yul\":4403:4877   */\n      swap3\n      pop\n      swap3\n      swap1\n      pop\n      jump\t// out\n        /* \"#utility.yul\":4883:4997   */\n    tag_130:\n        /* \"#utility.yul\":4950:4956   */\n      0x00\n        /* \"#utility.yul\":4984:4989   */\n      dup2\n        /* \"#utility.yul\":4978:4990   */\n      mload\n        /* \"#utility.yul\":4968:4990   */\n      swap1\n      pop\n        /* \"#utility.yul\":4883:4997   */\n      swap2\n      swap1\n      pop\n      jump\t// out\n        /* \"#utility.yul\":5003:5187   */\n    tag_131:\n        /* \"#utility.yul\":5102:5113   */\n      0x00\n        /* \"#utility.yul\":5136:5142   */\n      dup3\n        /* \"#utility.yul\":5131:5134   */\n      dup3\n        /* \"#utility.yul\":5124:5143   */\n      mstore\n        /* \"#utility.yul\":5176:5180   */\n      0x20\n        /* \"#utility.yul\":5171:5174   */\n      dup3\n        /* \"#utility.yul\":5167:5181   */\n      add\n        /* \"#utility.yul\":5152:5181   */\n      swap1\n      pop\n        /* \"#utility.yul\":5003:5187   */\n      swap3\n      swap2\n      pop\n      pop\n      jump\t// out\n        /* \"#utility.yul\":5193:5325   */\n    tag_132:\n        /* \"#utility.yul\":5260:5264   */\n      0x00\n        /* \"#utility.yul\":5283:5286   */\n      dup2\n        /* \"#utility.yul\":5275:5286   */\n      swap1\n      pop\n        /* \"#utility.yul\":5313:5317   */\n      0x20\n        /* \"#utility.yul\":5308:5311   */\n      dup3\n        /* \"#utility.yul\":5304:5318   */\n      add\n        /* \"#utility.yul\":5296:5318   */\n      swap1\n      pop\n        /* \"#utility.yul\":5193:5325   */\n      swap2\n      swap1\n      pop\n      jump\t// out\n        /* \"#utility.yul\":5331:5439   */\n    tag_133:\n        /* \"#utility.yul\":5408:5432   */\n      tag_221\n        /* \"#utility.yul\":5426:5431   */\n      dup2\n        /* \"#utility.yul\":5408:5432   */\n      tag_113\n      jump\t// in\n    tag_221:\n        /* \"#utility.yul\":5403:5406   */\n      dup3\n        /* \"#utility.yul\":5396:5433   */\n      mstore\n        /* \"#utility.yul\":5331:5439   */\n      pop\n      pop\n      jump\t// out\n        /* \"#utility.yul\":5445:5624   */\n    tag_134:\n        /* \"#utility.yul\":5514:5524   */\n      0x00\n        /* \"#utility.yul\":5535:5581   */\n      tag_223\n        /* \"#utility.yul\":5577:5580   */\n      dup4\n        /* \"#utility.yul\":5569:5575   */\n      dup4\n        /* \"#utility.yul\":5535:5581   */\n      tag_133\n      jump\t// in\n    tag_223:\n        /* \"#utility.yul\":5613:5617   */\n      0x20\n        /* \"#utility.yul\":5608:5611   */\n      dup4\n        /* \"#utility.yul\":5604:5618   */\n      add\n        /* \"#utility.yul\":5590:5618   */\n      swap1\n      pop\n        /* \"#utility.yul\":5445:5624   */\n      swap3\n      swap2\n      pop\n      pop\n      jump\t// out\n        /* \"#utility.yul\":5630:5743   */\n    tag_135:\n        /* \"#utility.yul\":5700:5704   */\n      0x00\n        /* \"#utility.yul\":5732:5736   */\n      0x20\n        /* \"#utility.yul\":5727:5730   */\n      dup3\n        /* \"#utility.yul\":5723:5737   */\n      add\n        /* \"#utility.yul\":5715:5737   */\n      swap1\n      pop\n        /* \"#utility.yul\":5630:5743   */\n      swap2\n      swap1\n      pop\n      jump\t// out\n        /* \"#utility.yul\":5779:6511   */\n    tag_136:\n        /* \"#utility.yul\":5898:5901   */\n      0x00\n        /* \"#utility.yul\":5927:5981   */\n      tag_226\n        /* \"#utility.yul\":5975:5980   */\n      dup3\n        /* \"#utility.yul\":5927:5981   */\n      tag_130\n      jump\t// in\n    tag_226:\n        /* \"#utility.yul\":5997:6083   */\n      tag_227\n        /* \"#utility.yul\":6076:6082   */\n      dup2\n        /* \"#utility.yul\":6071:6074   */\n      dup6\n        /* \"#utility.yul\":5997:6083   */\n      tag_131\n      jump\t// in\n    tag_227:\n        /* \"#utility.yul\":5990:6083   */\n      swap4\n      pop\n        /* \"#utility.yul\":6107:6163   */\n      tag_228\n        /* \"#utility.yul\":6157:6162   */\n      dup4\n        /* \"#utility.yul\":6107:6163   */\n      tag_132\n      jump\t// in\n    tag_228:\n        /* \"#utility.yul\":6186:6193   */\n      dup1\n        /* \"#utility.yul\":6217:6218   */\n      0x00\n        /* \"#utility.yul\":6202:6486   */\n    tag_229:\n        /* \"#utility.yul\":6227:6233   */\n      dup4\n        /* \"#utility.yul\":6224:6225   */\n      dup2\n        /* \"#utility.yul\":6221:6234   */\n      lt\n        /* \"#utility.yul\":6202:6486   */\n      iszero\n      tag_231\n      jumpi\n        /* \"#utility.yul\":6303:6309   */\n      dup2\n        /* \"#utility.yul\":6297:6310   */\n      mload\n        /* \"#utility.yul\":6330:6393   */\n      tag_232\n        /* \"#utility.yul\":6389:6392   */\n      dup9\n        /* \"#utility.yul\":6374:6387   */\n      dup3\n        /* \"#utility.yul\":6330:6393   */\n      tag_134\n      jump\t// in\n    tag_232:\n        /* \"#utility.yul\":6323:6393   */\n      swap8\n      pop\n        /* \"#utility.yul\":6416:6476   */\n      tag_233\n        /* \"#utility.yul\":6469:6475   */\n      dup4\n        /* \"#utility.yul\":6416:6476   */\n      tag_135\n      jump\t// in\n    tag_233:\n        /* \"#utility.yul\":6406:6476   */\n      swap3\n      pop\n        /* \"#utility.yul\":6262:6486   */\n      pop\n        /* \"#utility.yul\":6249:6250   */\n      0x01\n        /* \"#utility.yul\":6246:6247   */\n      dup2\n        /* \"#utility.yul\":6242:6251   */\n      add\n        /* \"#utility.yul\":6237:6251   */\n      swap1\n      pop\n        /* \"#utility.yul\":6202:6486   */\n      jump(tag_229)\n    tag_231:\n        /* \"#utility.yul\":6206:6220   */\n      pop\n        /* \"#utility.yul\":6502:6505   */\n      dup6\n        /* \"#utility.yul\":6495:6505   */\n      swap4\n      pop\n        /* \"#utility.yul\":5903:6511   */\n      pop\n      pop\n      pop\n        /* \"#utility.yul\":5779:6511   */\n      swap3\n      swap2\n      pop\n      pop\n      jump\t// out\n        /* \"#utility.yul\":6517:6890   */\n    tag_46:\n        /* \"#utility.yul\":6660:6664   */\n      0x00\n        /* \"#utility.yul\":6698:6700   */\n      0x20\n        /* \"#utility.yul\":6687:6696   */\n      dup3\n        /* \"#utility.yul\":6683:6701   */\n      add\n        /* \"#utility.yul\":6675:6701   */\n      swap1\n      pop\n        /* \"#utility.yul\":6747:6756   */\n      dup2\n        /* \"#utility.yul\":6741:6745   */\n      dup2\n        /* \"#utility.yul\":6737:6757   */\n      sub\n        /* \"#utility.yul\":6733:6734   */\n      0x00\n        /* \"#utility.yul\":6722:6731   */\n      dup4\n        /* \"#utility.yul\":6718:6735   */\n      add\n        /* \"#utility.yul\":6711:6758   */\n      mstore\n        /* \"#utility.yul\":6775:6883   */\n      tag_235\n        /* \"#utility.yul\":6878:6882   */\n      dup2\n        /* \"#utility.yul\":6869:6875   */\n      dup5\n        /* \"#utility.yul\":6775:6883   */\n      tag_136\n      jump\t// in\n    tag_235:\n        /* \"#utility.yul\":6767:6883   */\n      swap1\n      pop\n        /* \"#utility.yul\":6517:6890   */\n      swap3\n      swap2\n      pop\n      pop\n      jump\t// out\n        /* \"#utility.yul\":6896:7065   */\n    tag_137:\n        /* \"#utility.yul\":6980:6991   */\n      0x00\n        /* \"#utility.yul\":7014:7020   */\n      dup3\n        /* \"#utility.yul\":7009:7012   */\n      dup3\n        /* \"#utility.yul\":7002:7021   */\n      mstore\n        /* \"#utility.yul\":7054:7058   */\n      0x20\n        /* \"#utility.yul\":7049:7052   */\n      dup3\n        /* \"#utility.yul\":7045:7059   */\n      add\n        /* \"#utility.yul\":7030:7059   */\n      swap1\n      pop\n        /* \"#utility.yul\":6896:7065   */\n      swap3\n      swap2\n      pop\n      pop\n      jump\t// out\n        /* \"#utility.yul\":7071:7308   */\n    tag_138:\n        /* \"#utility.yul\":7211:7245   */\n      0x53563a204f6e6c792061207265676973746572656420737570706c6965722063\n        /* \"#utility.yul\":7207:7208   */\n      0x00\n        /* \"#utility.yul\":7199:7205   */\n      dup3\n        /* \"#utility.yul\":7195:7209   */\n      add\n        /* \"#utility.yul\":7188:7246   */\n      mstore\n        /* \"#utility.yul\":7280:7300   */\n      0x616e2072656465656d20766f7563686572730000000000000000000000000000\n        /* \"#utility.yul\":7275:7277   */\n      0x20\n        /* \"#utility.yul\":7267:7273   */\n      dup3\n        /* \"#utility.yul\":7263:7278   */\n      add\n        /* \"#utility.yul\":7256:7301   */\n      mstore\n        /* \"#utility.yul\":7071:7308   */\n      pop\n      jump\t// out\n        /* \"#utility.yul\":7314:7680   */\n    tag_139:\n        /* \"#utility.yul\":7456:7459   */\n      0x00\n        /* \"#utility.yul\":7477:7544   */\n      tag_239\n        /* \"#utility.yul\":7541:7543   */\n      0x32\n        /* \"#utility.yul\":7536:7539   */\n      dup4\n        /* \"#utility.yul\":7477:7544   */\n      tag_137\n      jump\t// in\n    tag_239:\n        /* \"#utility.yul\":7470:7544   */\n      swap2\n      pop\n        /* \"#utility.yul\":7553:7646   */\n      tag_240\n        /* \"#utility.yul\":7642:7645   */\n      dup3\n        /* \"#utility.yul\":7553:7646   */\n      tag_138\n      jump\t// in\n    tag_240:\n        /* \"#utility.yul\":7671:7673   */\n      0x40\n        /* \"#utility.yul\":7666:7669   */\n      dup3\n        /* \"#utility.yul\":7662:7674   */\n      add\n        /* \"#utility.yul\":7655:7674   */\n      swap1\n      pop\n        /* \"#utility.yul\":7314:7680   */\n      swap2\n      swap1\n      pop\n      jump\t// out\n        /* \"#utility.yul\":7686:8105   */\n    tag_53:\n        /* \"#utility.yul\":7852:7856   */\n      0x00\n        /* \"#utility.yul\":7890:7892   */\n      0x20\n        /* \"#utility.yul\":7879:7888   */\n      dup3\n        /* \"#utility.yul\":7875:7893   */\n      add\n        /* \"#utility.yul\":7867:7893   */\n      swap1\n      pop\n        /* \"#utility.yul\":7939:7948   */\n      dup2\n        /* \"#utility.yul\":7933:7937   */\n      dup2\n        /* \"#utility.yul\":7929:7949   */\n      sub\n        /* \"#utility.yul\":7925:7926   */\n      0x00\n        /* \"#utility.yul\":7914:7923   */\n      dup4\n        /* \"#utility.yul\":7910:7927   */\n      add\n        /* \"#utility.yul\":7903:7950   */\n      mstore\n        /* \"#utility.yul\":7967:8098   */\n      tag_242\n        /* \"#utility.yul\":8093:8097   */\n      dup2\n        /* \"#utility.yul\":7967:8098   */\n      tag_139\n      jump\t// in\n    tag_242:\n        /* \"#utility.yul\":7959:8098   */\n      swap1\n      pop\n        /* \"#utility.yul\":7686:8105   */\n      swap2\n      swap1\n      pop\n      jump\t// out\n        /* \"#utility.yul\":8111:8283   */\n    tag_140:\n        /* \"#utility.yul\":8251:8275   */\n      0x53563a20496e76616c696420766f756368657220494400000000000000000000\n        /* \"#utility.yul\":8247:8248   */\n      0x00\n        /* \"#utility.yul\":8239:8245   */\n      dup3\n        /* \"#utility.yul\":8235:8249   */\n      add\n        /* \"#utility.yul\":8228:8276   */\n      mstore\n        /* \"#utility.yul\":8111:8283   */\n      pop\n      jump\t// out\n        /* \"#utility.yul\":8289:8655   */\n    tag_141:\n        /* \"#utility.yul\":8431:8434   */\n      0x00\n        /* \"#utility.yul\":8452:8519   */\n      tag_245\n        /* \"#utility.yul\":8516:8518   */\n      0x16\n        /* \"#utility.yul\":8511:8514   */\n      dup4\n        /* \"#utility.yul\":8452:8519   */\n      tag_137\n      jump\t// in\n    tag_245:\n        /* \"#utility.yul\":8445:8519   */\n      swap2\n      pop\n        /* \"#utility.yul\":8528:8621   */\n      tag_246\n        /* \"#utility.yul\":8617:8620   */\n      dup3\n        /* \"#utility.yul\":8528:8621   */\n      tag_140\n      jump\t// in\n    tag_246:\n        /* \"#utility.yul\":8646:8648   */\n      0x20\n        /* \"#utility.yul\":8641:8644   */\n      dup3\n        /* \"#utility.yul\":8637:8649   */\n      add\n        /* \"#utility.yul\":8630:8649   */\n      swap1\n      pop\n        /* \"#utility.yul\":8289:8655   */\n      swap2\n      swap1\n      pop\n      jump\t// out\n        /* \"#utility.yul\":8661:9080   */\n    tag_57:\n        /* \"#utility.yul\":8827:8831   */\n      0x00\n        /* \"#utility.yul\":8865:8867   */\n      0x20\n        /* \"#utility.yul\":8854:8863   */\n      dup3\n        /* \"#utility.yul\":8850:8868   */\n      add\n        /* \"#utility.yul\":8842:8868   */\n      swap1\n      pop\n        /* \"#utility.yul\":8914:8923   */\n      dup2\n        /* \"#utility.yul\":8908:8912   */\n      dup2\n        /* \"#utility.yul\":8904:8924   */\n      sub\n        /* \"#utility.yul\":8900:8901   */\n      0x00\n        /* \"#utility.yul\":8889:8898   */\n      dup4\n        /* \"#utility.yul\":8885:8902   */\n      add\n        /* \"#utility.yul\":8878:8925   */\n      mstore\n        /* \"#utility.yul\":8942:9073   */\n      tag_248\n        /* \"#utility.yul\":9068:9072   */\n      dup2\n        /* \"#utility.yul\":8942:9073   */\n      tag_141\n      jump\t// in\n    tag_248:\n        /* \"#utility.yul\":8934:9073   */\n      swap1\n      pop\n        /* \"#utility.yul\":8661:9080   */\n      swap2\n      swap1\n      pop\n      jump\t// out\n        /* \"#utility.yul\":9086:9308   */\n    tag_142:\n        /* \"#utility.yul\":9226:9260   */\n      0x53563a20566f7563686572206973206e6f7420696e2049737375656420737461\n        /* \"#utility.yul\":9222:9223   */\n      0x00\n        /* \"#utility.yul\":9214:9220   */\n      dup3\n        /* \"#utility.yul\":9210:9224   */\n      add\n        /* \"#utility.yul\":9203:9261   */\n      mstore\n        /* \"#utility.yul\":9295:9300   */\n      0x7475730000000000000000000000000000000000000000000000000000000000\n        /* \"#utility.yul\":9290:9292   */\n      0x20\n        /* \"#utility.yul\":9282:9288   */\n      dup3\n        /* \"#utility.yul\":9278:9293   */\n      add\n        /* \"#utility.yul\":9271:9301   */\n      mstore\n        /* \"#utility.yul\":9086:9308   */\n      pop\n      jump\t// out\n        /* \"#utility.yul\":9314:9680   */\n    tag_143:\n        /* \"#utility.yul\":9456:9459   */\n      0x00\n        /* \"#utility.yul\":9477:9544   */\n      tag_251\n        /* \"#utility.yul\":9541:9543   */\n      0x23\n        /* \"#utility.yul\":9536:9539   */\n      dup4\n        /* \"#utility.yul\":9477:9544   */\n      tag_137\n      jump\t// in\n    tag_251:\n        /* \"#utility.yul\":9470:9544   */\n      swap2\n      pop\n        /* \"#utility.yul\":9553:9646   */\n      tag_252\n        /* \"#utility.yul\":9642:9645   */\n      dup3\n        /* \"#utility.yul\":9553:9646   */\n      tag_142\n      jump\t// in\n    tag_252:\n        /* \"#utility.yul\":9671:9673   */\n      0x40\n        /* \"#utility.yul\":9666:9669   */\n      dup3\n        /* \"#utility.yul\":9662:9674   */\n      add\n        /* \"#utility.yul\":9655:9674   */\n      swap1\n      pop\n        /* \"#utility.yul\":9314:9680   */\n      swap2\n      swap1\n      pop\n      jump\t// out\n        /* \"#utility.yul\":9686:10105   */\n    tag_65:\n        /* \"#utility.yul\":9852:9856   */\n      0x00\n        /* \"#utility.yul\":9890:9892   */\n      0x20\n        /* \"#utility.yul\":9879:9888   */\n      dup3\n        /* \"#utility.yul\":9875:9893   */\n      add\n        /* \"#utility.yul\":9867:9893   */\n      swap1\n      pop\n        /* \"#utility.yul\":9939:9948   */\n      dup2\n        /* \"#utility.yul\":9933:9937   */\n      dup2\n        /* \"#utility.yul\":9929:9949   */\n      sub\n        /* \"#utility.yul\":9925:9926   */\n      0x00\n        /* \"#utility.yul\":9914:9923   */\n      dup4\n        /* \"#utility.yul\":9910:9927   */\n      add\n        /* \"#utility.yul\":9903:9950   */\n      mstore\n        /* \"#utility.yul\":9967:10098   */\n      tag_254\n        /* \"#utility.yul\":10093:10097   */\n      dup2\n        /* \"#utility.yul\":9967:10098   */\n      tag_143\n      jump\t// in\n    tag_254:\n        /* \"#utility.yul\":9959:10098   */\n      swap1\n      pop\n        /* \"#utility.yul\":9686:10105   */\n      swap2\n      swap1\n      pop\n      jump\t// out\n        /* \"#utility.yul\":10111:10553   */\n    tag_69:\n        /* \"#utility.yul\":10260:10264   */\n      0x00\n        /* \"#utility.yul\":10298:10300   */\n      0x60\n        /* \"#utility.yul\":10287:10296   */\n      dup3\n        /* \"#utility.yul\":10283:10301   */\n      add\n        /* \"#utility.yul\":10275:10301   */\n      swap1\n      pop\n        /* \"#utility.yul\":10311:10382   */\n      tag_256\n        /* \"#utility.yul\":10379:10380   */\n      0x00\n        /* \"#utility.yul\":10368:10377   */\n      dup4\n        /* \"#utility.yul\":10364:10381   */\n      add\n        /* \"#utility.yul\":10355:10361   */\n      dup7\n        /* \"#utility.yul\":10311:10382   */\n      tag_114\n      jump\t// in\n    tag_256:\n        /* \"#utility.yul\":10392:10464   */\n      tag_257\n        /* \"#utility.yul\":10460:10462   */\n      0x20\n        /* \"#utility.yul\":10449:10458   */\n      dup4\n        /* \"#utility.yul\":10445:10463   */\n      add\n        /* \"#utility.yul\":10436:10442   */\n      dup6\n        /* \"#utility.yul\":10392:10464   */\n      tag_121\n      jump\t// in\n    tag_257:\n        /* \"#utility.yul\":10474:10546   */\n      tag_258\n        /* \"#utility.yul\":10542:10544   */\n      0x40\n        /* \"#utility.yul\":10531:10540   */\n      dup4\n        /* \"#utility.yul\":10527:10545   */\n      add\n        /* \"#utility.yul\":10518:10524   */\n      dup5\n        /* \"#utility.yul\":10474:10546   */\n      tag_121\n      jump\t// in\n    tag_258:\n        /* \"#utility.yul\":10111:10553   */\n      swap5\n      swap4\n      pop\n      pop\n      pop\n      pop\n      jump\t// out\n        /* \"#utility.yul\":10559:10788   */\n    tag_144:\n        /* \"#utility.yul\":10699:10733   */\n      0x53563a204f6e6c79207468652046756e6465722063616e2063616c6c20746869\n        /* \"#utility.yul\":10695:10696   */\n      0x00\n        /* \"#utility.yul\":10687:10693   */\n      dup3\n        /* \"#utility.yul\":10683:10697   */\n      add\n        /* \"#utility.yul\":10676:10734   */\n      mstore\n        /* \"#utility.yul\":10768:10780   */\n      0x732066756e6374696f6e00000000000000000000000000000000000000000000\n        /* \"#utility.yul\":10763:10765   */\n      0x20\n        /* \"#utility.yul\":10755:10761   */\n      dup3\n        /* \"#utility.yul\":10751:10766   */\n      add\n        /* \"#utility.yul\":10744:10781   */\n      mstore\n        /* \"#utility.yul\":10559:10788   */\n      pop\n      jump\t// out\n        /* \"#utility.yul\":10794:11160   */\n    tag_145:\n        /* \"#utility.yul\":10936:10939   */\n      0x00\n        /* \"#utility.yul\":10957:11024   */\n      tag_261\n        /* \"#utility.yul\":11021:11023   */\n      0x2a\n        /* \"#utility.yul\":11016:11019   */\n      dup4\n        /* \"#utility.yul\":10957:11024   */\n      tag_137\n      jump\t// in\n    tag_261:\n        /* \"#utility.yul\":10950:11024   */\n      swap2\n      pop\n        /* \"#utility.yul\":11033:11126   */\n      tag_262\n        /* \"#utility.yul\":11122:11125   */\n      dup3\n        /* \"#utility.yul\":11033:11126   */\n      tag_144\n      jump\t// in\n    tag_262:\n        /* \"#utility.yul\":11151:11153   */\n      0x40\n        /* \"#utility.yul\":11146:11149   */\n      dup3\n        /* \"#utility.yul\":11142:11154   */\n      add\n        /* \"#utility.yul\":11135:11154   */\n      swap1\n      pop\n        /* \"#utility.yul\":10794:11160   */\n      swap2\n      swap1\n      pop\n      jump\t// out\n        /* \"#utility.yul\":11166:11585   */\n    tag_73:\n        /* \"#utility.yul\":11332:11336   */\n      0x00\n        /* \"#utility.yul\":11370:11372   */\n      0x20\n        /* \"#utility.yul\":11359:11368   */\n      dup3\n        /* \"#utility.yul\":11355:11373   */\n      add\n        /* \"#utility.yul\":11347:11373   */\n      swap1\n      pop\n        /* \"#utility.yul\":11419:11428   */\n      dup2\n        /* \"#utility.yul\":11413:11417   */\n      dup2\n        /* \"#utility.yul\":11409:11429   */\n      sub\n        /* \"#utility.yul\":11405:11406   */\n      0x00\n        /* \"#utility.yul\":11394:11403   */\n      dup4\n        /* \"#utility.yul\":11390:11407   */\n      add\n        /* \"#utility.yul\":11383:11430   */\n      mstore\n        /* \"#utility.yul\":11447:11578   */\n      tag_264\n        /* \"#utility.yul\":11573:11577   */\n      dup2\n        /* \"#utility.yul\":11447:11578   */\n      tag_145\n      jump\t// in\n    tag_264:\n        /* \"#utility.yul\":11439:11578   */\n      swap1\n      pop\n        /* \"#utility.yul\":11166:11585   */\n      swap2\n      swap1\n      pop\n      jump\t// out\n        /* \"#utility.yul\":11591:11759   */\n    tag_146:\n        /* \"#utility.yul\":11731:11751   */\n      0x53563a204e6f74206120737570706c6965720000000000000000000000000000\n        /* \"#utility.yul\":11727:11728   */\n      0x00\n        /* \"#utility.yul\":11719:11725   */\n      dup3\n        /* \"#utility.yul\":11715:11729   */\n      add\n        /* \"#utility.yul\":11708:11752   */\n      mstore\n        /* \"#utility.yul\":11591:11759   */\n      pop\n      jump\t// out\n        /* \"#utility.yul\":11765:12131   */\n    tag_147:\n        /* \"#utility.yul\":11907:11910   */\n      0x00\n        /* \"#utility.yul\":11928:11995   */\n      tag_267\n        /* \"#utility.yul\":11992:11994   */\n      0x12\n        /* \"#utility.yul\":11987:11990   */\n      dup4\n        /* \"#utility.yul\":11928:11995   */\n      tag_137\n      jump\t// in\n    tag_267:\n        /* \"#utility.yul\":11921:11995   */\n      swap2\n      pop\n        /* \"#utility.yul\":12004:12097   */\n      tag_268\n        /* \"#utility.yul\":12093:12096   */\n      dup3\n        /* \"#utility.yul\":12004:12097   */\n      tag_146\n      jump\t// in\n    tag_268:\n        /* \"#utility.yul\":12122:12124   */\n      0x20\n        /* \"#utility.yul\":12117:12120   */\n      dup3\n        /* \"#utility.yul\":12113:12125   */\n      add\n        /* \"#utility.yul\":12106:12125   */\n      swap1\n      pop\n        /* \"#utility.yul\":11765:12131   */\n      swap2\n      swap1\n      pop\n      jump\t// out\n        /* \"#utility.yul\":12137:12556   */\n    tag_77:\n        /* \"#utility.yul\":12303:12307   */\n      0x00\n        /* \"#utility.yul\":12341:12343   */\n      0x20\n        /* \"#utility.yul\":12330:12339   */\n      dup3\n        /* \"#utility.yul\":12326:12344   */\n      add\n        /* \"#utility.yul\":12318:12344   */\n      swap1\n      pop\n        /* \"#utility.yul\":12390:12399   */\n      dup2\n        /* \"#utility.yul\":12384:12388   */\n      dup2\n        /* \"#utility.yul\":12380:12400   */\n      sub\n        /* \"#utility.yul\":12376:12377   */\n      0x00\n        /* \"#utility.yul\":12365:12374   */\n      dup4\n        /* \"#utility.yul\":12361:12378   */\n      add\n        /* \"#utility.yul\":12354:12401   */\n      mstore\n        /* \"#utility.yul\":12418:12549   */\n      tag_270\n        /* \"#utility.yul\":12544:12548   */\n      dup2\n        /* \"#utility.yul\":12418:12549   */\n      tag_147\n      jump\t// in\n    tag_270:\n        /* \"#utility.yul\":12410:12549   */\n      swap1\n      pop\n        /* \"#utility.yul\":12137:12556   */\n      swap2\n      swap1\n      pop\n      jump\t// out\n        /* \"#utility.yul\":12562:12738   */\n    tag_148:\n        /* \"#utility.yul\":12702:12730   */\n      0x53563a20496e76616c6964206661726d65722061646472657373000000000000\n        /* \"#utility.yul\":12698:12699   */\n      0x00\n        /* \"#utility.yul\":12690:12696   */\n      dup3\n        /* \"#utility.yul\":12686:12700   */\n      add\n        /* \"#utility.yul\":12679:12731   */\n      mstore\n        /* \"#utility.yul\":12562:12738   */\n      pop\n      jump\t// out\n        /* \"#utility.yul\":12744:13110   */\n    tag_149:\n        /* \"#utility.yul\":12886:12889   */\n      0x00\n        /* \"#utility.yul\":12907:12974   */\n      tag_273\n        /* \"#utility.yul\":12971:12973   */\n      0x1a\n        /* \"#utility.yul\":12966:12969   */\n      dup4\n        /* \"#utility.yul\":12907:12974   */\n      tag_137\n      jump\t// in\n    tag_273:\n        /* \"#utility.yul\":12900:12974   */\n      swap2\n      pop\n        /* \"#utility.yul\":12983:13076   */\n      tag_274\n        /* \"#utility.yul\":13072:13075   */\n      dup3\n        /* \"#utility.yul\":12983:13076   */\n      tag_148\n      jump\t// in\n    tag_274:\n        /* \"#utility.yul\":13101:13103   */\n      0x20\n        /* \"#utility.yul\":13096:13099   */\n      dup3\n        /* \"#utility.yul\":13092:13104   */\n      add\n        /* \"#utility.yul\":13085:13104   */\n      swap1\n      pop\n        /* \"#utility.yul\":12744:13110   */\n      swap2\n      swap1\n      pop\n      jump\t// out\n        /* \"#utility.yul\":13116:13535   */\n    tag_84:\n        /* \"#utility.yul\":13282:13286   */\n      0x00\n        /* \"#utility.yul\":13320:13322   */\n      0x20\n        /* \"#utility.yul\":13309:13318   */\n      dup3\n        /* \"#utility.yul\":13305:13323   */\n      add\n        /* \"#utility.yul\":13297:13323   */\n      swap1\n      pop\n        /* \"#utility.yul\":13369:13378   */\n      dup2\n        /* \"#utility.yul\":13363:13367   */\n      dup2\n        /* \"#utility.yul\":13359:13379   */\n      sub\n        /* \"#utility.yul\":13355:13356   */\n      0x00\n        /* \"#utility.yul\":13344:13353   */\n      dup4\n        /* \"#utility.yul\":13340:13357   */\n      add\n        /* \"#utility.yul\":13333:13380   */\n      mstore\n        /* \"#utility.yul\":13397:13528   */\n      tag_276\n        /* \"#utility.yul\":13523:13527   */\n      dup2\n        /* \"#utility.yul\":13397:13528   */\n      tag_149\n      jump\t// in\n    tag_276:\n        /* \"#utility.yul\":13389:13528   */\n      swap1\n      pop\n        /* \"#utility.yul\":13116:13535   */\n      swap2\n      swap1\n      pop\n      jump\t// out\n        /* \"#utility.yul\":13541:13764   */\n    tag_150:\n        /* \"#utility.yul\":13681:13715   */\n      0x53563a20416d6f756e74206d7573742062652067726561746572207468616e20\n        /* \"#utility.yul\":13677:13678   */\n      0x00\n        /* \"#utility.yul\":13669:13675   */\n      dup3\n        /* \"#utility.yul\":13665:13679   */\n      add\n        /* \"#utility.yul\":13658:13716   */\n      mstore\n        /* \"#utility.yul\":13750:13756   */\n      0x7a65726f00000000000000000000000000000000000000000000000000000000\n        /* \"#utility.yul\":13745:13747   */\n      0x20\n        /* \"#utility.yul\":13737:13743   */\n      dup3\n        /* \"#utility.yul\":13733:13748   */\n      add\n        /* \"#utility.yul\":13726:13757   */\n      mstore\n        /* \"#utility.yul\":13541:13764   */\n      pop\n      jump\t// out\n        /* \"#utility.yul\":13770:14136   */\n    tag_151:\n        /* \"#utility.yul\":13912:13915   */\n      0x00\n        /* \"#utility.yul\":13933:14000   */\n      tag_279\n        /* \"#utility.yul\":13997:13999   */\n      0x24\n        /* \"#utility.yul\":13992:13995   */\n      dup4\n        /* \"#utility.yul\":13933:14000   */\n      tag_137\n      jump\t// in\n    tag_279:\n        /* \"#utility.yul\":13926:14000   */\n      swap2\n      pop\n        /* \"#utility.yul\":14009:14102   */\n      tag_280\n        /* \"#utility.yul\":14098:14101   */\n      dup3\n        /* \"#utility.yul\":14009:14102   */\n      tag_150\n      jump\t// in\n    tag_280:\n        /* \"#utility.yul\":14127:14129   */\n      0x40\n        /* \"#utility.yul\":14122:14125   */\n      dup3\n        /* \"#utility.yul\":14118:14130   */\n      add\n        /* \"#utility.yul\":14111:14130   */\n      swap1\n      pop\n        /* \"#utility.yul\":13770:14136   */\n      swap2\n      swap1\n      pop\n      jump\t// out\n        /* \"#utility.yul\":14142:14561   */\n    tag_87:\n        /* \"#utility.yul\":14308:14312   */\n      0x00\n        /* \"#utility.yul\":14346:14348   */\n      0x20\n        /* \"#utility.yul\":14335:14344   */\n      dup3\n        /* \"#utility.yul\":14331:14349   */\n      add\n        /* \"#utility.yul\":14323:14349   */\n      swap1\n      pop\n        /* \"#utility.yul\":14395:14404   */\n      dup2\n        /* \"#utility.yul\":14389:14393   */\n      dup2\n        /* \"#utility.yul\":14385:14405   */\n      sub\n        /* \"#utility.yul\":14381:14382   */\n      0x00\n        /* \"#utility.yul\":14370:14379   */\n      dup4\n        /* \"#utility.yul\":14366:14383   */\n      add\n        /* \"#utility.yul\":14359:14406   */\n      mstore\n        /* \"#utility.yul\":14423:14554   */\n      tag_282\n        /* \"#utility.yul\":14549:14553   */\n      dup2\n        /* \"#utility.yul\":14423:14554   */\n      tag_151\n      jump\t// in\n    tag_282:\n        /* \"#utility.yul\":14415:14554   */\n      swap1\n      pop\n        /* \"#utility.yul\":14142:14561   */\n      swap2\n      swap1\n      pop\n      jump\t// out\n        /* \"#utility.yul\":14567:14747   */\n    tag_152:\n        /* \"#utility.yul\":14615:14692   */\n      0x4e487b7100000000000000000000000000000000000000000000000000000000\n        /* \"#utility.yul\":14612:14613   */\n      0x00\n        /* \"#utility.yul\":14605:14693   */\n      mstore\n        /* \"#utility.yul\":14712:14716   */\n      0x11\n        /* \"#utility.yul\":14709:14710   */\n      0x04\n        /* \"#utility.yul\":14702:14717   */\n      mstore\n        /* \"#utility.yul\":14736:14740   */\n      0x24\n        /* \"#utility.yul\":14733:14734   */\n      0x00\n        /* \"#utility.yul\":14726:14741   */\n      revert\n        /* \"#utility.yul\":14753:14986   */\n    tag_89:\n        /* \"#utility.yul\":14792:14795   */\n      0x00\n        /* \"#utility.yul\":14815:14839   */\n      tag_285\n        /* \"#utility.yul\":14833:14838   */\n      dup3\n        /* \"#utility.yul\":14815:14839   */\n      tag_118\n      jump\t// in\n    tag_285:\n        /* \"#utility.yul\":14806:14839   */\n      swap2\n      pop\n        /* \"#utility.yul\":14861:14927   */\n      0xffffffffffffffffffffffffffffffffffffffffffffffffffffffffffffffff\n        /* \"#utility.yul\":14854:14859   */\n      dup3\n        /* \"#utility.yul\":14851:14928   */\n      sub\n        /* \"#utility.yul\":14848:14951   */\n      tag_286\n      jumpi\n        /* \"#utility.yul\":14931:14949   */\n      tag_287\n      tag_152\n      jump\t// in\n    tag_287:\n        /* \"#utility.yul\":14848:14951   */\n    tag_286:\n        /* \"#utility.yul\":14978:14979   */\n      0x01\n        /* \"#utility.yul\":14971:14976   */\n      dup3\n        /* \"#utility.yul\":14967:14980   */\n      add\n        /* \"#utility.yul\":14960:14980   */\n      swap1\n      pop\n        /* \"#utility.yul\":14753:14986   */\n      swap2\n      swap1\n      pop\n      jump\t// out\n        /* \"#utility.yul\":14992:15324   */\n    tag_95:\n        /* \"#utility.yul\":15113:15117   */\n      0x00\n        /* \"#utility.yul\":15151:15153   */\n      0x40\n        /* \"#utility.yul\":15140:15149   */\n      dup3\n        /* \"#utility.yul\":15136:15154   */\n      add\n        /* \"#utility.yul\":15128:15154   */\n      swap1\n      pop\n        /* \"#utility.yul\":15164:15235   */\n      tag_289\n        /* \"#utility.yul\":15232:15233   */\n      0x00\n        /* \"#utility.yul\":15221:15230   */\n      dup4\n        /* \"#utility.yul\":15217:15234   */\n      add\n        /* \"#utility.yul\":15208:15214   */\n      dup6\n        /* \"#utility.yul\":15164:15235   */\n      tag_121\n      jump\t// in\n    tag_289:\n        /* \"#utility.yul\":15245:15317   */\n      tag_290\n        /* \"#utility.yul\":15313:15315   */\n      0x20\n        /* \"#utility.yul\":15302:15311   */\n      dup4\n        /* \"#utility.yul\":15298:15316   */\n      add\n        /* \"#utility.yul\":15289:15295   */\n      dup5\n        /* \"#utility.yul\":15245:15317   */\n      tag_121\n      jump\t// in\n    tag_290:\n        /* \"#utility.yul\":14992:15324   */\n      swap4\n      swap3\n      pop\n      pop\n      pop\n      jump\t// out\n        /* \"#utility.yul\":15330:15499   */\n    tag_153:\n        /* \"#utility.yul\":15470:15491   */\n      0x53563a20496e76616c6964206164647265737300000000000000000000000000\n        /* \"#utility.yul\":15466:15467   */\n      0x00\n        /* \"#utility.yul\":15458:15464   */\n      dup3\n        /* \"#utility.yul\":15454:15468   */\n      add\n        /* \"#utility.yul\":15447:15492   */\n      mstore\n        /* \"#utility.yul\":15330:15499   */\n      pop\n      jump\t// out\n        /* \"#utility.yul\":15505:15871   */\n    tag_154:\n        /* \"#utility.yul\":15647:15650   */\n      0x00\n        /* \"#utility.yul\":15668:15735   */\n      tag_293\n        /* \"#utility.yul\":15732:15734   */\n      0x13\n        /* \"#utility.yul\":15727:15730   */\n      dup4\n        /* \"#utility.yul\":15668:15735   */\n      tag_137\n      jump\t// in\n    tag_293:\n        /* \"#utility.yul\":15661:15735   */\n      swap2\n      pop\n        /* \"#utility.yul\":15744:15837   */\n      tag_294\n        /* \"#utility.yul\":15833:15836   */\n      dup3\n        /* \"#utility.yul\":15744:15837   */\n      tag_153\n      jump\t// in\n    tag_294:\n        /* \"#utility.yul\":15862:15864   */\n      0x20\n        /* \"#utility.yul\":15857:15860   */\n      dup3\n        /* \"#utility.yul\":15853:15865   */\n      add\n        /* \"#utility.yul\":15846:15865   */\n      swap1\n      pop\n        /* \"#utility.yul\":15505:15871   */\n      swap2\n      swap1\n      pop\n      jump\t// out\n        /* \"#utility.yul\":15877:16296   */\n    tag_107:\n        /* \"#utility.yul\":16043:16047   */\n      0x00\n        /* \"#utility.yul\":16081:16083   */\n      0x20\n        /* \"#utility.yul\":16070:16079   */\n      dup3\n        /* \"#utility.yul\":16066:16084   */\n      add\n        /* \"#utility.yul\":16058:16084   */\n      swap1\n      pop\n        /* \"#utility.yul\":16130:16139   */\n      dup2\n        /* \"#utility.yul\":16124:16128   */\n      dup2\n        /* \"#utility.yul\":16120:16140   */\n      sub\n        /* \"#utility.yul\":16116:16117   */\n      0x00\n        /* \"#utility.yul\":16105:16114   */\n      dup4\n        /* \"#utility.yul\":16101:16118   */\n      add\n        /* \"#utility.yul\":16094:16141   */\n      mstore\n        /* \"#utility.yul\":16158:16289   */\n      tag_296\n        /* \"#utility.yul\":16284:16288   */\n      dup2\n        /* \"#utility.yul\":16158:16289   */\n      tag_154\n      jump\t// in\n    tag_296:\n        /* \"#utility.yul\":16150:16289   */\n      swap1\n      pop\n        /* \"#utility.yul\":15877:16296   */\n      swap2\n      swap1\n      pop\n      jump\t// out\n        /* \"#utility.yul\":16302:16474   */\n    tag_155:\n        /* \"#utility.yul\":16442:16466   */\n      0x53563a20416c7265616479207265676973746572656400000000000000000000\n        /* \"#utility.yul\":16438:16439   */\n      0x00\n        /* \"#utility.yul\":16430:16436   */\n      dup3\n        /* \"#utility.yul\":16426:16440   */\n      add\n        /* \"#utility.yul\":16419:16467   */\n      mstore\n        /* \"#utility.yul\":16302:16474   */\n      pop\n      jump\t// out\n        /* \"#utility.yul\":16480:16846   */\n    tag_156:\n        /* \"#utility.yul\":16622:16625   */\n      0x00\n        /* \"#utility.yul\":16643:16710   */\n      tag_299\n        /* \"#utility.yul\":16707:16709   */\n      0x16\n        /* \"#utility.yul\":16702:16705   */\n      dup4\n        /* \"#utility.yul\":16643:16710   */\n      tag_137\n      jump\t// in\n    tag_299:\n        /* \"#utility.yul\":16636:16710   */\n      swap2\n      pop\n        /* \"#utility.yul\":16719:16812   */\n      tag_300\n        /* \"#utility.yul\":16808:16811   */\n      dup3\n        /* \"#utility.yul\":16719:16812   */\n      tag_155\n      jump\t// in\n    tag_300:\n        /* \"#utility.yul\":16837:16839   */\n      0x20\n        /* \"#utility.yul\":16832:16835   */\n      dup3\n        /* \"#utility.yul\":16828:16840   */\n      add\n        /* \"#utility.yul\":16821:16840   */\n      swap1\n      pop\n        /* \"#utility.yul\":16480:16846   */\n      swap2\n      swap1\n      pop\n      jump\t// out\n        /* \"#utility.yul\":16852:17271   */\n    tag_110:\n        /* \"#utility.yul\":17018:17022   */\n      0x00\n        /* \"#utility.yul\":17056:17058   */\n      0x20\n        /* \"#utility.yul\":17045:17054   */\n      dup3\n        /* \"#utility.yul\":17041:17059   */\n      add\n        /* \"#utility.yul\":17033:17059   */\n      swap1\n      pop\n        /* \"#utility.yul\":17105:17114   */\n      dup2\n        /* \"#utility.yul\":17099:17103   */\n      dup2\n        /* \"#utility.yul\":17095:17115   */\n      sub\n        /* \"#utility.yul\":17091:17092   */\n      0x00\n        /* \"#utility.yul\":17080:17089   */\n      dup4\n        /* \"#utility.yul\":17076:17093   */\n      add\n        /* \"#utility.yul\":17069:17116   */\n      mstore\n        /* \"#utility.yul\":17133:17264   */\n      tag_302\n        /* \"#utility.yul\":17259:17263   */\n      dup2\n        /* \"#utility.yul\":17133:17264   */\n      tag_156\n      jump\t// in\n    tag_302:\n        /* \"#utility.yul\":17125:17264   */\n      swap1\n      pop\n        /* \"#utility.yul\":16852:17271   */\n      swap2\n      swap1\n      pop\n      jump\t// out\n\n    auxdata: 0xa264697066735822122059c94809fd34c868c8e3e2047f39506c30fd410683932a25eba50d725140ba1a64736f6c634300081e0033\n}\n",
				"bytecode": {
					"linkReferences": {},
					"object": "60a06040525f5f553480156011575f5ffd5b503373ffffffffffffffffffffffffffffffffffffffff1660808173ffffffffffffffffffffffffffffffffffffffff16815250506080516115a06100735f395f81816101d9015281816104dc015281816106aa0152610a8501526115a05ff3fe608060405234801561000f575f5ffd5b5060043610610091575f3560e01c8063463365421161006457806346336542146101215780638da75e5714610151578063a58f66501461016d578063b53305dc1461019d578063cf7f5e5f146101bb57610091565b8063041ae880146100955780631c6d6b5e146100b35780633e97b43f146100cf578063413104ee14610105575b5f5ffd5b61009d6101d7565b6040516100aa9190610d43565b60405180910390f35b6100cd60048036038101906100c89190610d93565b6101fb565b005b6100e960048036038101906100e49190610d93565b610452565b6040516100fc9796959493929190610e40565b60405180910390f35b61011f600480360381019061011a9190610ed7565b6104da565b005b61013b60048036038101906101369190610ed7565b61068b565b6040516101489190610f1c565b60405180910390f35b61016b60048036038101906101669190610f35565b6106a8565b005b61018760048036038101906101829190610d93565b6109bd565b6040516101949190610d43565b60405180910390f35b6101a56109f8565b6040516101b2919061102a565b60405180910390f35b6101d560048036038101906101d09190610ed7565b610a83565b005b7f000000000000000000000000000000000000000000000000000000000000000081565b60025f3373ffffffffffffffffffffffffffffffffffffffff1673ffffffffffffffffffffffffffffffffffffffff1681526020019081526020015f205f9054906101000a900460ff16610284576040517f08c379a000000000000000000000000000000000000000000000000000000000815260040161027b906110ca565b60405180910390fd5b5f8111801561029457505f548111155b6102d3576040517f08c379a00000000000000000000000000000000000000000000000000000000081526004016102ca90611132565b60405180910390fd5b5f60015f8381526020019081526020015f2090505f60028111156102fa576102f9610dcd565b5b816006015f9054906101000a900460ff16600281111561031d5761031c610dcd565b5b1461035d576040517f08c379a0000000000000000000000000000000000000000000000000000000008152600401610354906111c0565b60405180910390fd5b6001816006015f6101000a81548160ff0219169083600281111561038457610383610dcd565b5b021790555033816004015f6101000a81548173ffffffffffffffffffffffffffffffffffffffff021916908373ffffffffffffffffffffffffffffffffffffffff1602179055504281600501819055503373ffffffffffffffffffffffffffffffffffffffff16827fe1c9f4ef913b05e8722e196566e1d6bb4d48860d67fec002c8f261502b870bf6836001015f9054906101000a900473ffffffffffffffffffffffffffffffffffffffff16846002015442604051610446939291906111de565b60405180910390a35050565b6001602052805f5260405f205f91509050805f015490806001015f9054906101000a900473ffffffffffffffffffffffffffffffffffffffff1690806002015490806003015490806004015f9054906101000a900473ffffffffffffffffffffffffffffffffffffffff1690806005015490806006015f9054906101000a900460ff16905087565b7f000000000000000000000000000000000000000000000000000000000000000073ffffffffffffffffffffffffffffffffffffffff163373ffffffffffffffffffffffffffffffffffffffff1614610568576040517f08c379a000000000000000000000000000000000000000000000000000000000815260040161055f90611283565b60405180910390fd5b60025f8273ffffffffffffffffffffffffffffffffffffffff1673ffffffffffffffffffffffffffffffffffffffff1681526020019081526020015f205f9054906101000a900460ff166105f1576040517f08c379a00000000000000000000000000000000000000000000000000000000081526004016105e8906112eb565b60405180910390fd5b5f60025f8373ffffffffffffffffffffffffffffffffffffffff1673ffffffffffffffffffffffffffffffffffffffff1681526020019081526020015f205f6101000a81548160ff0219169083151502179055508073ffffffffffffffffffffffffffffffffffffffff167fdb9c3bf1a929adafe0973e2a833e03ca444832c4285ee7bed344502e51ed993a60405160405180910390a250565b6002602052805f5260405f205f915054906101000a900460ff1681565b7f000000000000000000000000000000000000000000000000000000000000000073ffffffffffffffffffffffffffffffffffffffff163373ffffffffffffffffffffffffffffffffffffffff1614610736576040517f08c379a000000000000000000000000000000000000000000000000000000000815260040161072d90611283565b60405180910390fd5b5f73ffffffffffffffffffffffffffffffffffffffff168273ffffffffffffffffffffffffffffffffffffffff16036107a4576040517f08c379a000000000000000000000000000000000000000000000000000000000815260040161079b90611353565b60405180910390fd5b5f81116107e6576040517f08c379a00000000000000000000000000000000000000000000000000000000081526004016107dd906113e1565b60405180910390fd5b5f5f8154809291906107f79061142c565b91905055505f5f5490506040518060e001604052808281526020018473ffffffffffffffffffffffffffffffffffffffff1681526020018381526020014281526020015f73ffffffffffffffffffffffffffffffffffffffff1681526020015f81526020015f600281111561086f5761086e610dcd565b5b81525060015f8381526020019081526020015f205f820151815f01556020820151816001015f6101000a81548173ffffffffffffffffffffffffffffffffffffffff021916908373ffffffffffffffffffffffffffffffffffffffff16021790555060408201518160020155606082015181600301556080820151816004015f6101000a81548173ffffffffffffffffffffffffffffffffffffffff021916908373ffffffffffffffffffffffffffffffffffffffff16021790555060a0820151816005015560c0820151816006015f6101000a81548160ff0219169083600281111561095f5761095e610dcd565b5b02179055509050508273ffffffffffffffffffffffffffffffffffffffff16817f84e75fadd10326e7012a13061a6f00977857d4ea481f7b048d5654bcaa77e4d184426040516109b0929190611473565b60405180910390a3505050565b600381815481106109cc575f80fd5b905f5260205f20015f915054906101000a900473ffffffffffffffffffffffffffffffffffffffff1681565b60606003805480602002602001604051908101604052809291908181526020018280548015610a7957602002820191905f5260205f20905b815f9054906101000a900473ffffffffffffffffffffffffffffffffffffffff1673ffffffffffffffffffffffffffffffffffffffff1681526020019060010190808311610a30575b5050505050905090565b7f000000000000000000000000000000000000000000000000000000000000000073ffffffffffffffffffffffffffffffffffffffff163373ffffffffffffffffffffffffffffffffffffffff1614610b11576040517f08c379a0000000000000000000000000000000000000000000000000000000008152600401610b0890611283565b60405180910390fd5b5f73ffffffffffffffffffffffffffffffffffffffff168173ffffffffffffffffffffffffffffffffffffffff1603610b7f576040517f08c379a0000000000000000000000000000000000000000000000000000000008152600401610b76906114e4565b60405180910390fd5b60025f8273ffffffffffffffffffffffffffffffffffffffff1673ffffffffffffffffffffffffffffffffffffffff1681526020019081526020015f205f9054906101000a900460ff1615610c09576040517f08c379a0000000000000000000000000000000000000000000000000000000008152600401610c009061154c565b60405180910390fd5b600160025f8373ffffffffffffffffffffffffffffffffffffffff1673ffffffffffffffffffffffffffffffffffffffff1681526020019081526020015f205f6101000a81548160ff021916908315150217905550600381908060018154018082558091505060019003905f5260205f20015f9091909190916101000a81548173ffffffffffffffffffffffffffffffffffffffff021916908373ffffffffffffffffffffffffffffffffffffffff1602179055508073ffffffffffffffffffffffffffffffffffffffff167fbcffc870b52d3cb785b17c2c7426be70f9181ce49c43cc7b479ebcfac2d7a1c860405160405180910390a250565b5f73ffffffffffffffffffffffffffffffffffffffff82169050919050565b5f610d2d82610d04565b9050919050565b610d3d81610d23565b82525050565b5f602082019050610d565f830184610d34565b92915050565b5f5ffd5b5f819050919050565b610d7281610d60565b8114610d7c575f5ffd5b50565b5f81359050610d8d81610d69565b92915050565b5f60208284031215610da857610da7610d5c565b5b5f610db584828501610d7f565b91505092915050565b610dc781610d60565b82525050565b7f4e487b71000000000000000000000000000000000000000000000000000000005f52602160045260245ffd5b60038110610e0b57610e0a610dcd565b5b50565b5f819050610e1b82610dfa565b919050565b5f610e2a82610e0e565b9050919050565b610e3a81610e20565b82525050565b5f60e082019050610e535f83018a610dbe565b610e606020830189610d34565b610e6d6040830188610dbe565b610e7a6060830187610dbe565b610e876080830186610d34565b610e9460a0830185610dbe565b610ea160c0830184610e31565b98975050505050505050565b610eb681610d23565b8114610ec0575f5ffd5b50565b5f81359050610ed181610ead565b92915050565b5f60208284031215610eec57610eeb610d5c565b5b5f610ef984828501610ec3565b91505092915050565b5f8115159050919050565b610f1681610f02565b82525050565b5f602082019050610f2f5f830184610f0d565b92915050565b5f5f60408385031215610f4b57610f4a610d5c565b5b5f610f5885828601610ec3565b9250506020610f6985828601610d7f565b9150509250929050565b5f81519050919050565b5f82825260208201905092915050565b5f819050602082019050919050565b610fa581610d23565b82525050565b5f610fb68383610f9c565b60208301905092915050565b5f602082019050919050565b5f610fd882610f73565b610fe28185610f7d565b9350610fed83610f8d565b805f5b8381101561101d5781516110048882610fab565b975061100f83610fc2565b925050600181019050610ff0565b5085935050505092915050565b5f6020820190508181035f8301526110428184610fce565b905092915050565b5f82825260208201905092915050565b7f53563a204f6e6c792061207265676973746572656420737570706c69657220635f8201527f616e2072656465656d20766f7563686572730000000000000000000000000000602082015250565b5f6110b460328361104a565b91506110bf8261105a565b604082019050919050565b5f6020820190508181035f8301526110e1816110a8565b9050919050565b7f53563a20496e76616c696420766f7563686572204944000000000000000000005f82015250565b5f61111c60168361104a565b9150611127826110e8565b602082019050919050565b5f6020820190508181035f83015261114981611110565b9050919050565b7f53563a20566f7563686572206973206e6f7420696e20497373756564207374615f8201527f7475730000000000000000000000000000000000000000000000000000000000602082015250565b5f6111aa60238361104a565b91506111b582611150565b604082019050919050565b5f6020820190508181035f8301526111d78161119e565b9050919050565b5f6060820190506111f15f830186610d34565b6111fe6020830185610dbe565b61120b6040830184610dbe565b949350505050565b7f53563a204f6e6c79207468652046756e6465722063616e2063616c6c207468695f8201527f732066756e6374696f6e00000000000000000000000000000000000000000000602082015250565b5f61126d602a8361104a565b915061127882611213565b604082019050919050565b5f6020820190508181035f83015261129a81611261565b9050919050565b7f53563a204e6f74206120737570706c69657200000000000000000000000000005f82015250565b5f6112d560128361104a565b91506112e0826112a1565b602082019050919050565b5f6020820190508181035f830152611302816112c9565b9050919050565b7f53563a20496e76616c6964206661726d657220616464726573730000000000005f82015250565b5f61133d601a8361104a565b915061134882611309565b602082019050919050565b5f6020820190508181035f83015261136a81611331565b9050919050565b7f53563a20416d6f756e74206d7573742062652067726561746572207468616e205f8201527f7a65726f00000000000000000000000000000000000000000000000000000000602082015250565b5f6113cb60248361104a565b91506113d682611371565b604082019050919050565b5f6020820190508181035f8301526113f8816113bf565b9050919050565b7f4e487b71000000000000000000000000000000000000000000000000000000005f52601160045260245ffd5b5f61143682610d60565b91507fffffffffffffffffffffffffffffffffffffffffffffffffffffffffffffffff8203611468576114676113ff565b5b600182019050919050565b5f6040820190506114865f830185610dbe565b6114936020830184610dbe565b9392505050565b7f53563a20496e76616c69642061646472657373000000000000000000000000005f82015250565b5f6114ce60138361104a565b91506114d98261149a565b602082019050919050565b5f6020820190508181035f8301526114fb816114c2565b9050919050565b7f53563a20416c72656164792072656769737465726564000000000000000000005f82015250565b5f61153660168361104a565b915061154182611502565b602082019050919050565b5f6020820190508181035f8301526115638161152a565b905091905056fea264697066735822122059c94809fd34c868c8e3e2047f39506c30fd410683932a25eba50d725140ba1a64736f6c634300081e0033",
					"opcodes": "PUSH1 0xA0 PUSH1 0x40 MSTORE PUSH0 PUSH0 SSTORE CALLVALUE DUP1 ISZERO PUSH1 0x11 JUMPI PUSH0 PUSH0 REVERT JUMPDEST POP CALLER PUSH20 0xFFFFFFFFFFFFFFFFFFFFFFFFFFFFFFFFFFFFFFFF AND PUSH1 0x80 DUP2 PUSH20 0xFFFFFFFFFFFFFFFFFFFFFFFFFFFFFFFFFFFFFFFF AND DUP2 MSTORE POP POP PUSH1 0x80 MLOAD PUSH2 0x15A0 PUSH2 0x73 PUSH0 CODECOPY PUSH0 DUP2 DUP2 PUSH2 0x1D9 ADD MSTORE DUP2 DUP2 PUSH2 0x4DC ADD MSTORE DUP2 DUP2 PUSH2 0x6AA ADD MSTORE PUSH2 0xA85 ADD MSTORE PUSH2 0x15A0 PUSH0 RETURN INVALID PUSH1 0x80 PUSH1 0x40 MSTORE CALLVALUE DUP1 ISZERO PUSH2 0xF JUMPI PUSH0 PUSH0 REVERT JUMPDEST POP PUSH1 0x4 CALLDATASIZE LT PUSH2 0x91 JUMPI PUSH0 CALLDATALOAD PUSH1 0xE0 SHR DUP1 PUSH4 0x46336542 GT PUSH2 0x64 JUMPI DUP1 PUSH4 0x46336542 EQ PUSH2 0x121 JUMPI DUP1 PUSH4 0x8DA75E57 EQ PUSH2 0x151 JUMPI DUP1 PUSH4 0xA58F6650 EQ PUSH2 0x16D JUMPI DUP1 PUSH4 0xB53305DC EQ PUSH2 0x19D JUMPI DUP1 PUSH4 0xCF7F5E5F EQ PUSH2 0x1BB JUMPI PUSH2 0x91 JUMP JUMPDEST DUP1 PUSH4 0x41AE880 EQ PUSH2 0x95 JUMPI DUP1 PUSH4 0x1C6D6B5E EQ PUSH2 0xB3 JUMPI DUP1 PUSH4 0x3E97B43F EQ PUSH2 0xCF JUMPI DUP1 PUSH4 0x413104EE EQ PUSH2 0x105 JUMPI JUMPDEST PUSH0 PUSH0 REVERT JUMPDEST PUSH2 0x9D PUSH2 0x1D7 JUMP JUMPDEST PUSH1 0x40 MLOAD PUSH2 0xAA SWAP2 SWAP1 PUSH2 0xD43 JUMP JUMPDEST PUSH1 0x40 MLOAD DUP1 SWAP2 SUB SWAP1 RETURN JUMPDEST PUSH2 0xCD PUSH1 0x4 DUP1 CALLDATASIZE SUB DUP2 ADD SWAP1 PUSH2 0xC8 SWAP2 SWAP1 PUSH2 0xD93 JUMP JUMPDEST PUSH2 0x1FB JUMP JUMPDEST STOP JUMPDEST PUSH2 0xE9 PUSH1 0x4 DUP1 CALLDATASIZE SUB DUP2 ADD SWAP1 PUSH2 0xE4 SWAP2 SWAP1 PUSH2 0xD93 JUMP JUMPDEST PUSH2 0x452 JUMP JUMPDEST PUSH1 0x40 MLOAD PUSH2 0xFC SWAP8 SWAP7 SWAP6 SWAP5 SWAP4 SWAP3 SWAP2 SWAP1 PUSH2 0xE40 JUMP JUMPDEST PUSH1 0x40 MLOAD DUP1 SWAP2 SUB SWAP1 RETURN JUMPDEST PUSH2 0x11F PUSH1 0x4 DUP1 CALLDATASIZE SUB DUP2 ADD SWAP1 PUSH2 0x11A SWAP2 SWAP1 PUSH2 0xED7 JUMP JUMPDEST PUSH2 0x4DA JUMP JUMPDEST STOP JUMPDEST PUSH2 0x13B PUSH1 0x4 DUP1 CALLDATASIZE SUB DUP2 ADD SWAP1 PUSH2 0x136 SWAP2 SWAP1 PUSH2 0xED7 JUMP JUMPDEST PUSH2 0x68B JUMP JUMPDEST PUSH1 0x40 MLOAD PUSH2 0x148 SWAP2 SWAP1 PUSH2 0xF1C JUMP JUMPDEST PUSH1 0x40 MLOAD DUP1 SWAP2 SUB SWAP1 RETURN JUMPDEST PUSH2 0x16B PUSH1 0x4 DUP1 CALLDATASIZE SUB DUP2 ADD SWAP1 PUSH2 0x166 SWAP2 SWAP1 PUSH2 0xF35 JUMP JUMPDEST PUSH2 0x6A8 JUMP JUMPDEST STOP JUMPDEST PUSH2 0x187 PUSH1 0x4 DUP1 CALLDATASIZE SUB DUP2 ADD SWAP1 PUSH2 0x182 SWAP2 SWAP1 PUSH2 0xD93 JUMP JUMPDEST PUSH2 0x9BD JUMP JUMPDEST PUSH1 0x40 MLOAD PUSH2 0x194 SWAP2 SWAP1 PUSH2 0xD43 JUMP JUMPDEST PUSH1 0x40 MLOAD DUP1 SWAP2 SUB SWAP1 RETURN JUMPDEST PUSH2 0x1A5 PUSH2 0x9F8 JUMP JUMPDEST PUSH1 0x40 MLOAD PUSH2 0x1B2 SWAP2 SWAP1 PUSH2 0x102A JUMP JUMPDEST PUSH1 0x40 MLOAD DUP1 SWAP2 SUB SWAP1 RETURN JUMPDEST PUSH2 0x1D5 PUSH1 0x4 DUP1 CALLDATASIZE SUB DUP2 ADD SWAP1 PUSH2 0x1D0 SWAP2 SWAP1 PUSH2 0xED7 JUMP JUMPDEST PUSH2 0xA83 JUMP JUMPDEST STOP JUMPDEST PUSH32 0x0 DUP2 JUMP JUMPDEST PUSH1 0x2 PUSH0 CALLER PUSH20 0xFFFFFFFFFFFFFFFFFFFFFFFFFFFFFFFFFFFFFFFF AND PUSH20 0xFFFFFFFFFFFFFFFFFFFFFFFFFFFFFFFFFFFFFFFF AND DUP2 MSTORE PUSH1 0x20 ADD SWAP1 DUP2 MSTORE PUSH1 0x20 ADD PUSH0 KECCAK256 PUSH0 SWAP1 SLOAD SWAP1 PUSH2 0x100 EXP SWAP1 DIV PUSH1 0xFF AND PUSH2 0x284 JUMPI PUSH1 0x40 MLOAD PUSH32 0x8C379A000000000000000000000000000000000000000000000000000000000 DUP2 MSTORE PUSH1 0x4 ADD PUSH2 0x27B SWAP1 PUSH2 0x10CA JUMP JUMPDEST PUSH1 0x40 MLOAD DUP1 SWAP2 SUB SWAP1 REVERT JUMPDEST PUSH0 DUP2 GT DUP1 ISZERO PUSH2 0x294 JUMPI POP PUSH0 SLOAD DUP2 GT ISZERO JUMPDEST PUSH2 0x2D3 JUMPI PUSH1 0x40 MLOAD PUSH32 0x8C379A000000000000000000000000000000000000000000000000000000000 DUP2 MSTORE PUSH1 0x4 ADD PUSH2 0x2CA SWAP1 PUSH2 0x1132 JUMP JUMPDEST PUSH1 0x40 MLOAD DUP1 SWAP2 SUB SWAP1 REVERT JUMPDEST PUSH0 PUSH1 0x1 PUSH0 DUP4 DUP2 MSTORE PUSH1 0x20 ADD SWAP1 DUP2 MSTORE PUSH1 0x20 ADD PUSH0 KECCAK256 SWAP1 POP PUSH0 PUSH1 0x2 DUP2 GT ISZERO PUSH2 0x2FA JUMPI PUSH2 0x2F9 PUSH2 0xDCD JUMP JUMPDEST JUMPDEST DUP2 PUSH1 0x6 ADD PUSH0 SWAP1 SLOAD SWAP1 PUSH2 0x100 EXP SWAP1 DIV PUSH1 0xFF AND PUSH1 0x2 DUP2 GT ISZERO PUSH2 0x31D JUMPI PUSH2 0x31C PUSH2 0xDCD JUMP JUMPDEST JUMPDEST EQ PUSH2 0x35D JUMPI PUSH1 0x40 MLOAD PUSH32 0x8C379A000000000000000000000000000000000000000000000000000000000 DUP2 MSTORE PUSH1 0x4 ADD PUSH2 0x354 SWAP1 PUSH2 0x11C0 JUMP JUMPDEST PUSH1 0x40 MLOAD DUP1 SWAP2 SUB SWAP1 REVERT JUMPDEST PUSH1 0x1 DUP2 PUSH1 0x6 ADD PUSH0 PUSH2 0x100 EXP DUP2 SLOAD DUP2 PUSH1 0xFF MUL NOT AND SWAP1 DUP4 PUSH1 0x2 DUP2 GT ISZERO PUSH2 0x384 JUMPI PUSH2 0x383 PUSH2 0xDCD JUMP JUMPDEST JUMPDEST MUL OR SWAP1 SSTORE POP CALLER DUP2 PUSH1 0x4 ADD PUSH0 PUSH2 0x100 EXP DUP2 SLOAD DUP2 PUSH20 0xFFFFFFFFFFFFFFFFFFFFFFFFFFFFFFFFFFFFFFFF MUL NOT AND SWAP1 DUP4 PUSH20 0xFFFFFFFFFFFFFFFFFFFFFFFFFFFFFFFFFFFFFFFF AND MUL OR SWAP1 SSTORE POP TIMESTAMP DUP2 PUSH1 0x5 ADD DUP2 SWAP1 SSTORE POP CALLER PUSH20 0xFFFFFFFFFFFFFFFFFFFFFFFFFFFFFFFFFFFFFFFF AND DUP3 PUSH32 0xE1C9F4EF913B05E8722E196566E1D6BB4D48860D67FEC002C8F261502B870BF6 DUP4 PUSH1 0x1 ADD PUSH0 SWAP1 SLOAD SWAP1 PUSH2 0x100 EXP SWAP1 DIV PUSH20 0xFFFFFFFFFFFFFFFFFFFFFFFFFFFFFFFFFFFFFFFF AND DUP5 PUSH1 0x2 ADD SLOAD TIMESTAMP PUSH1 0x40 MLOAD PUSH2 0x446 SWAP4 SWAP3 SWAP2 SWAP1 PUSH2 0x11DE JUMP JUMPDEST PUSH1 0x40 MLOAD DUP1 SWAP2 SUB SWAP1 LOG3 POP POP JUMP JUMPDEST PUSH1 0x1 PUSH1 0x20 MSTORE DUP1 PUSH0 MSTORE PUSH1 0x40 PUSH0 KECCAK256 PUSH0 SWAP2 POP SWAP1 POP DUP1 PUSH0 ADD SLOAD SWAP1 DUP1 PUSH1 0x1 ADD PUSH0 SWAP1 SLOAD SWAP1 PUSH2 0x100 EXP SWAP1 DIV PUSH20 0xFFFFFFFFFFFFFFFFFFFFFFFFFFFFFFFFFFFFFFFF AND SWAP1 DUP1 PUSH1 0x2 ADD SLOAD SWAP1 DUP1 PUSH1 0x3 ADD SLOAD SWAP1 DUP1 PUSH1 0x4 ADD PUSH0 SWAP1 SLOAD SWAP1 PUSH2 0x100 EXP SWAP1 DIV PUSH20 0xFFFFFFFFFFFFFFFFFFFFFFFFFFFFFFFFFFFFFFFF AND SWAP1 DUP1 PUSH1 0x5 ADD SLOAD SWAP1 DUP1 PUSH1 0x6 ADD PUSH0 SWAP1 SLOAD SWAP1 PUSH2 0x100 EXP SWAP1 DIV PUSH1 0xFF AND SWAP1 POP DUP8 JUMP JUMPDEST PUSH32 0x0 PUSH20 0xFFFFFFFFFFFFFFFFFFFFFFFFFFFFFFFFFFFFFFFF AND CALLER PUSH20 0xFFFFFFFFFFFFFFFFFFFFFFFFFFFFFFFFFFFFFFFF AND EQ PUSH2 0x568 JUMPI PUSH1 0x40 MLOAD PUSH32 0x8C379A000000000000000000000000000000000000000000000000000000000 DUP2 MSTORE PUSH1 0x4 ADD PUSH2 0x55F SWAP1 PUSH2 0x1283 JUMP JUMPDEST PUSH1 0x40 MLOAD DUP1 SWAP2 SUB SWAP1 REVERT JUMPDEST PUSH1 0x2 PUSH0 DUP3 PUSH20 0xFFFFFFFFFFFFFFFFFFFFFFFFFFFFFFFFFFFFFFFF AND PUSH20 0xFFFFFFFFFFFFFFFFFFFFFFFFFFFFFFFFFFFFFFFF AND DUP2 MSTORE PUSH1 0x20 ADD SWAP1 DUP2 MSTORE PUSH1 0x20 ADD PUSH0 KECCAK256 PUSH0 SWAP1 SLOAD SWAP1 PUSH2 0x100 EXP SWAP1 DIV PUSH1 0xFF AND PUSH2 0x5F1 JUMPI PUSH1 0x40 MLOAD PUSH32 0x8C379A000000000000000000000000000000000000000000000000000000000 DUP2 MSTORE PUSH1 0x4 ADD PUSH2 0x5E8 SWAP1 PUSH2 0x12EB JUMP JUMPDEST PUSH1 0x40 MLOAD DUP1 SWAP2 SUB SWAP1 REVERT JUMPDEST PUSH0 PUSH1 0x2 PUSH0 DUP4 PUSH20 0xFFFFFFFFFFFFFFFFFFFFFFFFFFFFFFFFFFFFFFFF AND PUSH20 0xFFFFFFFFFFFFFFFFFFFFFFFFFFFFFFFFFFFFFFFF AND DUP2 MSTORE PUSH1 0x20 ADD SWAP1 DUP2 MSTORE PUSH1 0x20 ADD PUSH0 KECCAK256 PUSH0 PUSH2 0x100 EXP DUP2 SLOAD DUP2 PUSH1 0xFF MUL NOT AND SWAP1 DUP4 ISZERO ISZERO MUL OR SWAP1 SSTORE POP DUP1 PUSH20 0xFFFFFFFFFFFFFFFFFFFFFFFFFFFFFFFFFFFFFFFF AND PUSH32 0xDB9C3BF1A929ADAFE0973E2A833E03CA444832C4285EE7BED344502E51ED993A PUSH1 0x40 MLOAD PUSH1 0x40 MLOAD DUP1 SWAP2 SUB SWAP1 LOG2 POP JUMP JUMPDEST PUSH1 0x2 PUSH1 0x20 MSTORE DUP1 PUSH0 MSTORE PUSH1 0x40 PUSH0 KECCAK256 PUSH0 SWAP2 POP SLOAD SWAP1 PUSH2 0x100 EXP SWAP1 DIV PUSH1 0xFF AND DUP2 JUMP JUMPDEST PUSH32 0x0 PUSH20 0xFFFFFFFFFFFFFFFFFFFFFFFFFFFFFFFFFFFFFFFF AND CALLER PUSH20 0xFFFFFFFFFFFFFFFFFFFFFFFFFFFFFFFFFFFFFFFF AND EQ PUSH2 0x736 JUMPI PUSH1 0x40 MLOAD PUSH32 0x8C379A000000000000000000000000000000000000000000000000000000000 DUP2 MSTORE PUSH1 0x4 ADD PUSH2 0x72D SWAP1 PUSH2 0x1283 JUMP JUMPDEST PUSH1 0x40 MLOAD DUP1 SWAP2 SUB SWAP1 REVERT JUMPDEST PUSH0 PUSH20 0xFFFFFFFFFFFFFFFFFFFFFFFFFFFFFFFFFFFFFFFF AND DUP3 PUSH20 0xFFFFFFFFFFFFFFFFFFFFFFFFFFFFFFFFFFFFFFFF AND SUB PUSH2 0x7A4 JUMPI PUSH1 0x40 MLOAD PUSH32 0x8C379A000000000000000000000000000000000000000000000000000000000 DUP2 MSTORE PUSH1 0x4 ADD PUSH2 0x79B SWAP1 PUSH2 0x1353 JUMP JUMPDEST PUSH1 0x40 MLOAD DUP1 SWAP2 SUB SWAP1 REVERT JUMPDEST PUSH0 DUP2 GT PUSH2 0x7E6 JUMPI PUSH1 0x40 MLOAD PUSH32 0x8C379A000000000000000000000000000000000000000000000000000000000 DUP2 MSTORE PUSH1 0x4 ADD PUSH2 0x7DD SWAP1 PUSH2 0x13E1 JUMP JUMPDEST PUSH1 0x40 MLOAD DUP1 SWAP2 SUB SWAP1 REVERT JUMPDEST PUSH0 PUSH0 DUP2 SLOAD DUP1 SWAP3 SWAP2 SWAP1 PUSH2 0x7F7 SWAP1 PUSH2 0x142C JUMP JUMPDEST SWAP2 SWAP1 POP SSTORE POP PUSH0 PUSH0 SLOAD SWAP1 POP PUSH1 0x40 MLOAD DUP1 PUSH1 0xE0 ADD PUSH1 0x40 MSTORE DUP1 DUP3 DUP2 MSTORE PUSH1 0x20 ADD DUP5 PUSH20 0xFFFFFFFFFFFFFFFFFFFFFFFFFFFFFFFFFFFFFFFF AND DUP2 MSTORE PUSH1 0x20 ADD DUP4 DUP2 MSTORE PUSH1 0x20 ADD TIMESTAMP DUP2 MSTORE PUSH1 0x20 ADD PUSH0 PUSH20 0xFFFFFFFFFFFFFFFFFFFFFFFFFFFFFFFFFFFFFFFF AND DUP2 MSTORE PUSH1 0x20 ADD PUSH0 DUP2 MSTORE PUSH1 0x20 ADD PUSH0 PUSH1 0x2 DUP2 GT ISZERO PUSH2 0x86F JUMPI PUSH2 0x86E PUSH2 0xDCD JUMP JUMPDEST JUMPDEST DUP2 MSTORE POP PUSH1 0x1 PUSH0 DUP4 DUP2 MSTORE PUSH1 0x20 ADD SWAP1 DUP2 MSTORE PUSH1 0x20 ADD PUSH0 KECCAK256 PUSH0 DUP3 ADD MLOAD DUP2 PUSH0 ADD SSTORE PUSH1 0x20 DUP3 ADD MLOAD DUP2 PUSH1 0x1 ADD PUSH0 PUSH2 0x100 EXP DUP2 SLOAD DUP2 PUSH20 0xFFFFFFFFFFFFFFFFFFFFFFFFFFFFFFFFFFFFFFFF MUL NOT AND SWAP1 DUP4 PUSH20 0xFFFFFFFFFFFFFFFFFFFFFFFFFFFFFFFFFFFFFFFF AND MUL OR SWAP1 SSTORE POP PUSH1 0x40 DUP3 ADD MLOAD DUP2 PUSH1 0x2 ADD SSTORE PUSH1 0x60 DUP3 ADD MLOAD DUP2 PUSH1 0x3 ADD SSTORE PUSH1 0x80 DUP3 ADD MLOAD DUP2 PUSH1 0x4 ADD PUSH0 PUSH2 0x100 EXP DUP2 SLOAD DUP2 PUSH20 0xFFFFFFFFFFFFFFFFFFFFFFFFFFFFFFFFFFFFFFFF MUL NOT AND SWAP1 DUP4 PUSH20 0xFFFFFFFFFFFFFFFFFFFFFFFFFFFFFFFFFFFFFFFF AND MUL OR SWAP1 SSTORE POP PUSH1 0xA0 DUP3 ADD MLOAD DUP2 PUSH1 0x5 ADD SSTORE PUSH1 0xC0 DUP3 ADD MLOAD DUP2 PUSH1 0x6 ADD PUSH0 PUSH2 0x100 EXP DUP2 SLOAD DUP2 PUSH1 0xFF MUL NOT AND SWAP1 DUP4 PUSH1 0x2 DUP2 GT ISZERO PUSH2 0x95F JUMPI PUSH2 0x95E PUSH2 0xDCD JUMP JUMPDEST JUMPDEST MUL OR SWAP1 SSTORE POP SWAP1 POP POP DUP3 PUSH20 0xFFFFFFFFFFFFFFFFFFFFFFFFFFFFFFFFFFFFFFFF AND DUP2 PUSH32 0x84E75FADD10326E7012A13061A6F00977857D4EA481F7B048D5654BCAA77E4D1 DUP5 TIMESTAMP PUSH1 0x40 MLOAD PUSH2 0x9B0 SWAP3 SWAP2 SWAP1 PUSH2 0x1473 JUMP JUMPDEST PUSH1 0x40 MLOAD DUP1 SWAP2 SUB SWAP1 LOG3 POP POP POP JUMP JUMPDEST PUSH1 0x3 DUP2 DUP2 SLOAD DUP2 LT PUSH2 0x9CC JUMPI PUSH0 DUP1 REVERT JUMPDEST SWAP1 PUSH0 MSTORE PUSH1 0x20 PUSH0 KECCAK256 ADD PUSH0 SWAP2 POP SLOAD SWAP1 PUSH2 0x100 EXP SWAP1 DIV PUSH20 0xFFFFFFFFFFFFFFFFFFFFFFFFFFFFFFFFFFFFFFFF AND DUP2 JUMP JUMPDEST PUSH1 0x60 PUSH1 0x3 DUP1 SLOAD DUP1 PUSH1 0x20 MUL PUSH1 0x20 ADD PUSH1 0x40 MLOAD SWAP1 DUP2 ADD PUSH1 0x40 MSTORE DUP1 SWAP3 SWAP2 SWAP1 DUP2 DUP2 MSTORE PUSH1 0x20 ADD DUP3 DUP1 SLOAD DUP1 ISZERO PUSH2 0xA79 JUMPI PUSH1 0x20 MUL DUP3 ADD SWAP2 SWAP1 PUSH0 MSTORE PUSH1 0x20 PUSH0 KECCAK256 SWAP1 JUMPDEST DUP2 PUSH0 SWAP1 SLOAD SWAP1 PUSH2 0x100 EXP SWAP1 DIV PUSH20 0xFFFFFFFFFFFFFFFFFFFFFFFFFFFFFFFFFFFFFFFF AND PUSH20 0xFFFFFFFFFFFFFFFFFFFFFFFFFFFFFFFFFFFFFFFF AND DUP2 MSTORE PUSH1 0x20 ADD SWAP1 PUSH1 0x1 ADD SWAP1 DUP1 DUP4 GT PUSH2 0xA30 JUMPI JUMPDEST POP POP POP POP POP SWAP1 POP SWAP1 JUMP JUMPDEST PUSH32 0x0 PUSH20 0xFFFFFFFFFFFFFFFFFFFFFFFFFFFFFFFFFFFFFFFF AND CALLER PUSH20 0xFFFFFFFFFFFFFFFFFFFFFFFFFFFFFFFFFFFFFFFF AND EQ PUSH2 0xB11 JUMPI PUSH1 0x40 MLOAD PUSH32 0x8C379A000000000000000000000000000000000000000000000000000000000 DUP2 MSTORE PUSH1 0x4 ADD PUSH2 0xB08 SWAP1 PUSH2 0x1283 JUMP JUMPDEST PUSH1 0x40 MLOAD DUP1 SWAP2 SUB SWAP1 REVERT JUMPDEST PUSH0 PUSH20 0xFFFFFFFFFFFFFFFFFFFFFFFFFFFFFFFFFFFFFFFF AND DUP2 PUSH20 0xFFFFFFFFFFFFFFFFFFFFFFFFFFFFFFFFFFFFFFFF AND SUB PUSH2 0xB7F JUMPI PUSH1 0x40 MLOAD PUSH32 0x8C379A000000000000000000000000000000000000000000000000000000000 DUP2 MSTORE PUSH1 0x4 ADD PUSH2 0xB76 SWAP1 PUSH2 0x14E4 JUMP JUMPDEST PUSH1 0x40 MLOAD DUP1 SWAP2 SUB SWAP1 REVERT JUMPDEST PUSH1 0x2 PUSH0 DUP3 PUSH20 0xFFFFFFFFFFFFFFFFFFFFFFFFFFFFFFFFFFFFFFFF AND PUSH20 0xFFFFFFFFFFFFFFFFFFFFFFFFFFFFFFFFFFFFFFFF AND DUP2 MSTORE PUSH1 0x20 ADD SWAP1 DUP2 MSTORE PUSH1 0x20 ADD PUSH0 KECCAK256 PUSH0 SWAP1 SLOAD SWAP1 PUSH2 0x100 EXP SWAP1 DIV PUSH1 0xFF AND ISZERO PUSH2 0xC09 JUMPI PUSH1 0x40 MLOAD PUSH32 0x8C379A000000000000000000000000000000000000000000000000000000000 DUP2 MSTORE PUSH1 0x4 ADD PUSH2 0xC00 SWAP1 PUSH2 0x154C JUMP JUMPDEST PUSH1 0x40 MLOAD DUP1 SWAP2 SUB SWAP1 REVERT JUMPDEST PUSH1 0x1 PUSH1 0x2 PUSH0 DUP4 PUSH20 0xFFFFFFFFFFFFFFFFFFFFFFFFFFFFFFFFFFFFFFFF AND PUSH20 0xFFFFFFFFFFFFFFFFFFFFFFFFFFFFFFFFFFFFFFFF AND DUP2 MSTORE PUSH1 0x20 ADD SWAP1 DUP2 MSTORE PUSH1 0x20 ADD PUSH0 KECCAK256 PUSH0 PUSH2 0x100 EXP DUP2 SLOAD DUP2 PUSH1 0xFF MUL NOT AND SWAP1 DUP4 ISZERO ISZERO MUL OR SWAP1 SSTORE POP PUSH1 0x3 DUP2 SWAP1 DUP1 PUSH1 0x1 DUP2 SLOAD ADD DUP1 DUP3 SSTORE DUP1 SWAP2 POP POP PUSH1 0x1 SWAP1 SUB SWAP1 PUSH0 MSTORE PUSH1 0x20 PUSH0 KECCAK256 ADD PUSH0 SWAP1 SWAP2 SWAP1 SWAP2 SWAP1 SWAP2 PUSH2 0x100 EXP DUP2 SLOAD DUP2 PUSH20 0xFFFFFFFFFFFFFFFFFFFFFFFFFFFFFFFFFFFFFFFF MUL NOT AND SWAP1 DUP4 PUSH20 0xFFFFFFFFFFFFFFFFFFFFFFFFFFFFFFFFFFFFFFFF AND MUL OR SWAP1 SSTORE POP DUP1 PUSH20 0xFFFFFFFFFFFFFFFFFFFFFFFFFFFFFFFFFFFFFFFF AND PUSH32 0xBCFFC870B52D3CB785B17C2C7426BE70F9181CE49C43CC7B479EBCFAC2D7A1C8 PUSH1 0x40 MLOAD PUSH1 0x40 MLOAD DUP1 SWAP2 SUB SWAP1 LOG2 POP JUMP JUMPDEST PUSH0 PUSH20 0xFFFFFFFFFFFFFFFFFFFFFFFFFFFFFFFFFFFFFFFF DUP3 AND SWAP1 POP SWAP2 SWAP1 POP JUMP JUMPDEST PUSH0 PUSH2 0xD2D DUP3 PUSH2 0xD04 JUMP JUMPDEST SWAP1 POP SWAP2 SWAP1 POP JUMP JUMPDEST PUSH2 0xD3D DUP2 PUSH2 0xD23 JUMP JUMPDEST DUP3 MSTORE POP POP JUMP JUMPDEST PUSH0 PUSH1 0x20 DUP3 ADD SWAP1 POP PUSH2 0xD56 PUSH0 DUP4 ADD DUP5 PUSH2 0xD34 JUMP JUMPDEST SWAP3 SWAP2 POP POP JUMP JUMPDEST PUSH0 PUSH0 REVERT JUMPDEST PUSH0 DUP2 SWAP1 POP SWAP2 SWAP1 POP JUMP JUMPDEST PUSH2 0xD72 DUP2 PUSH2 0xD60 JUMP JUMPDEST DUP2 EQ PUSH2 0xD7C JUMPI PUSH0 PUSH0 REVERT JUMPDEST POP JUMP JUMPDEST PUSH0 DUP2 CALLDATALOAD SWAP1 POP PUSH2 0xD8D DUP2 PUSH2 0xD69 JUMP JUMPDEST SWAP3 SWAP2 POP POP JUMP JUMPDEST PUSH0 PUSH1 0x20 DUP3 DUP5 SUB SLT ISZERO PUSH2 0xDA8 JUMPI PUSH2 0xDA7 PUSH2 0xD5C JUMP JUMPDEST JUMPDEST PUSH0 PUSH2 0xDB5 DUP5 DUP3 DUP6 ADD PUSH2 0xD7F JUMP JUMPDEST SWAP2 POP POP SWAP3 SWAP2 POP POP JUMP JUMPDEST PUSH2 0xDC7 DUP2 PUSH2 0xD60 JUMP JUMPDEST DUP3 MSTORE POP POP JUMP JUMPDEST PUSH32 0x4E487B7100000000000000000000000000000000000000000000000000000000 PUSH0 MSTORE PUSH1 0x21 PUSH1 0x4 MSTORE PUSH1 0x24 PUSH0 REVERT JUMPDEST PUSH1 0x3 DUP2 LT PUSH2 0xE0B JUMPI PUSH2 0xE0A PUSH2 0xDCD JUMP JUMPDEST JUMPDEST POP JUMP JUMPDEST PUSH0 DUP2 SWAP1 POP PUSH2 0xE1B DUP3 PUSH2 0xDFA JUMP JUMPDEST SWAP2 SWAP1 POP JUMP JUMPDEST PUSH0 PUSH2 0xE2A DUP3 PUSH2 0xE0E JUMP JUMPDEST SWAP1 POP SWAP2 SWAP1 POP JUMP JUMPDEST PUSH2 0xE3A DUP2 PUSH2 0xE20 JUMP JUMPDEST DUP3 MSTORE POP POP JUMP JUMPDEST PUSH0 PUSH1 0xE0 DUP3 ADD SWAP1 POP PUSH2 0xE53 PUSH0 DUP4 ADD DUP11 PUSH2 0xDBE JUMP JUMPDEST PUSH2 0xE60 PUSH1 0x20 DUP4 ADD DUP10 PUSH2 0xD34 JUMP JUMPDEST PUSH2 0xE6D PUSH1 0x40 DUP4 ADD DUP9 PUSH2 0xDBE JUMP JUMPDEST PUSH2 0xE7A PUSH1 0x60 DUP4 ADD DUP8 PUSH2 0xDBE JUMP JUMPDEST PUSH2 0xE87 PUSH1 0x80 DUP4 ADD DUP7 PUSH2 0xD34 JUMP JUMPDEST PUSH2 0xE94 PUSH1 0xA0 DUP4 ADD DUP6 PUSH2 0xDBE JUMP JUMPDEST PUSH2 0xEA1 PUSH1 0xC0 DUP4 ADD DUP5 PUSH2 0xE31 JUMP JUMPDEST SWAP9 SWAP8 POP POP POP POP POP POP POP POP JUMP JUMPDEST PUSH2 0xEB6 DUP2 PUSH2 0xD23 JUMP JUMPDEST DUP2 EQ PUSH2 0xEC0 JUMPI PUSH0 PUSH0 REVERT JUMPDEST POP JUMP JUMPDEST PUSH0 DUP2 CALLDATALOAD SWAP1 POP PUSH2 0xED1 DUP2 PUSH2 0xEAD JUMP JUMPDEST SWAP3 SWAP2 POP POP JUMP JUMPDEST PUSH0 PUSH1 0x20 DUP3 DUP5 SUB SLT ISZERO PUSH2 0xEEC JUMPI PUSH2 0xEEB PUSH2 0xD5C JUMP JUMPDEST JUMPDEST PUSH0 PUSH2 0xEF9 DUP5 DUP3 DUP6 ADD PUSH2 0xEC3 JUMP JUMPDEST SWAP2 POP POP SWAP3 SWAP2 POP POP JUMP JUMPDEST PUSH0 DUP2 ISZERO ISZERO SWAP1 POP SWAP2 SWAP1 POP JUMP JUMPDEST PUSH2 0xF16 DUP2 PUSH2 0xF02 JUMP JUMPDEST DUP3 MSTORE POP POP JUMP JUMPDEST PUSH0 PUSH1 0x20 DUP3 ADD SWAP1 POP PUSH2 0xF2F PUSH0 DUP4 ADD DUP5 PUSH2 0xF0D JUMP JUMPDEST SWAP3 SWAP2 POP POP JUMP JUMPDEST PUSH0 PUSH0 PUSH1 0x40 DUP4 DUP6 SUB SLT ISZERO PUSH2 0xF4B JUMPI PUSH2 0xF4A PUSH2 0xD5C JUMP JUMPDEST JUMPDEST PUSH0 PUSH2 0xF58 DUP6 DUP3 DUP7 ADD PUSH2 0xEC3 JUMP JUMPDEST SWAP3 POP POP PUSH1 0x20 PUSH2 0xF69 DUP6 DUP3 DUP7 ADD PUSH2 0xD7F JUMP JUMPDEST SWAP2 POP POP SWAP3 POP SWAP3 SWAP1 POP JUMP JUMPDEST PUSH0 DUP2 MLOAD SWAP1 POP SWAP2 SWAP1 POP JUMP JUMPDEST PUSH0 DUP3 DUP3 MSTORE PUSH1 0x20 DUP3 ADD SWAP1 POP SWAP3 SWAP2 POP POP JUMP JUMPDEST PUSH0 DUP2 SWAP1 POP PUSH1 0x20 DUP3 ADD SWAP1 POP SWAP2 SWAP1 POP JUMP JUMPDEST PUSH2 0xFA5 DUP2 PUSH2 0xD23 JUMP JUMPDEST DUP3 MSTORE POP POP JUMP JUMPDEST PUSH0 PUSH2 0xFB6 DUP4 DUP4 PUSH2 0xF9C JUMP JUMPDEST PUSH1 0x20 DUP4 ADD SWAP1 POP SWAP3 SWAP2 POP POP JUMP JUMPDEST PUSH0 PUSH1 0x20 DUP3 ADD SWAP1 POP SWAP2 SWAP1 POP JUMP JUMPDEST PUSH0 PUSH2 0xFD8 DUP3 PUSH2 0xF73 JUMP JUMPDEST PUSH2 0xFE2 DUP2 DUP6 PUSH2 0xF7D JUMP JUMPDEST SWAP4 POP PUSH2 0xFED DUP4 PUSH2 0xF8D JUMP JUMPDEST DUP1 PUSH0 JUMPDEST DUP4 DUP2 LT ISZERO PUSH2 0x101D JUMPI DUP2 MLOAD PUSH2 0x1004 DUP9 DUP3 PUSH2 0xFAB JUMP JUMPDEST SWAP8 POP PUSH2 0x100F DUP4 PUSH2 0xFC2 JUMP JUMPDEST SWAP3 POP POP PUSH1 0x1 DUP2 ADD SWAP1 POP PUSH2 0xFF0 JUMP JUMPDEST POP DUP6 SWAP4 POP POP POP POP SWAP3 SWAP2 POP POP JUMP JUMPDEST PUSH0 PUSH1 0x20 DUP3 ADD SWAP1 POP DUP2 DUP2 SUB PUSH0 DUP4 ADD MSTORE PUSH2 0x1042 DUP2 DUP5 PUSH2 0xFCE JUMP JUMPDEST SWAP1 POP SWAP3 SWAP2 POP POP JUMP JUMPDEST PUSH0 DUP3 DUP3 MSTORE PUSH1 0x20 DUP3 ADD SWAP1 POP SWAP3 SWAP2 POP POP JUMP JUMPDEST PUSH32 0x53563A204F6E6C792061207265676973746572656420737570706C6965722063 PUSH0 DUP3 ADD MSTORE PUSH32 0x616E2072656465656D20766F7563686572730000000000000000000000000000 PUSH1 0x20 DUP3 ADD MSTORE POP JUMP JUMPDEST PUSH0 PUSH2 0x10B4 PUSH1 0x32 DUP4 PUSH2 0x104A JUMP JUMPDEST SWAP2 POP PUSH2 0x10BF DUP3 PUSH2 0x105A JUMP JUMPDEST PUSH1 0x40 DUP3 ADD SWAP1 POP SWAP2 SWAP1 POP JUMP JUMPDEST PUSH0 PUSH1 0x20 DUP3 ADD SWAP1 POP DUP2 DUP2 SUB PUSH0 DUP4 ADD MSTORE PUSH2 0x10E1 DUP2 PUSH2 0x10A8 JUMP JUMPDEST SWAP1 POP SWAP2 SWAP1 POP JUMP JUMPDEST PUSH32 0x53563A20496E76616C696420766F756368657220494400000000000000000000 PUSH0 DUP3 ADD MSTORE POP JUMP JUMPDEST PUSH0 PUSH2 0x111C PUSH1 0x16 DUP4 PUSH2 0x104A JUMP JUMPDEST SWAP2 POP PUSH2 0x1127 DUP3 PUSH2 0x10E8 JUMP JUMPDEST PUSH1 0x20 DUP3 ADD SWAP1 POP SWAP2 SWAP1 POP JUMP JUMPDEST PUSH0 PUSH1 0x20 DUP3 ADD SWAP1 POP DUP2 DUP2 SUB PUSH0 DUP4 ADD MSTORE PUSH2 0x1149 DUP2 PUSH2 0x1110 JUMP JUMPDEST SWAP1 POP SWAP2 SWAP1 POP JUMP JUMPDEST PUSH32 0x53563A20566F7563686572206973206E6F7420696E2049737375656420737461 PUSH0 DUP3 ADD MSTORE PUSH32 0x7475730000000000000000000000000000000000000000000000000000000000 PUSH1 0x20 DUP3 ADD MSTORE POP JUMP JUMPDEST PUSH0 PUSH2 0x11AA PUSH1 0x23 DUP4 PUSH2 0x104A JUMP JUMPDEST SWAP2 POP PUSH2 0x11B5 DUP3 PUSH2 0x1150 JUMP JUMPDEST PUSH1 0x40 DUP3 ADD SWAP1 POP SWAP2 SWAP1 POP JUMP JUMPDEST PUSH0 PUSH1 0x20 DUP3 ADD SWAP1 POP DUP2 DUP2 SUB PUSH0 DUP4 ADD MSTORE PUSH2 0x11D7 DUP2 PUSH2 0x119E JUMP JUMPDEST SWAP1 POP SWAP2 SWAP1 POP JUMP JUMPDEST PUSH0 PUSH1 0x60 DUP3 ADD SWAP1 POP PUSH2 0x11F1 PUSH0 DUP4 ADD DUP7 PUSH2 0xD34 JUMP JUMPDEST PUSH2 0x11FE PUSH1 0x20 DUP4 ADD DUP6 PUSH2 0xDBE JUMP JUMPDEST PUSH2 0x120B PUSH1 0x40 DUP4 ADD DUP5 PUSH2 0xDBE JUMP JUMPDEST SWAP5 SWAP4 POP POP POP POP JUMP JUMPDEST PUSH32 0x53563A204F6E6C79207468652046756E6465722063616E2063616C6C20746869 PUSH0 DUP3 ADD MSTORE PUSH32 0x732066756E6374696F6E00000000000000000000000000000000000000000000 PUSH1 0x20 DUP3 ADD MSTORE POP JUMP JUMPDEST PUSH0 PUSH2 0x126D PUSH1 0x2A DUP4 PUSH2 0x104A JUMP JUMPDEST SWAP2 POP PUSH2 0x1278 DUP3 PUSH2 0x1213 JUMP JUMPDEST PUSH1 0x40 DUP3 ADD SWAP1 POP SWAP2 SWAP1 POP JUMP JUMPDEST PUSH0 PUSH1 0x20 DUP3 ADD SWAP1 POP DUP2 DUP2 SUB PUSH0 DUP4 ADD MSTORE PUSH2 0x129A DUP2 PUSH2 0x1261 JUMP JUMPDEST SWAP1 POP SWAP2 SWAP1 POP JUMP JUMPDEST PUSH32 0x53563A204E6F74206120737570706C6965720000000000000000000000000000 PUSH0 DUP3 ADD MSTORE POP JUMP JUMPDEST PUSH0 PUSH2 0x12D5 PUSH1 0x12 DUP4 PUSH2 0x104A JUMP JUMPDEST SWAP2 POP PUSH2 0x12E0 DUP3 PUSH2 0x12A1 JUMP JUMPDEST PUSH1 0x20 DUP3 ADD SWAP1 POP SWAP2 SWAP1 POP JUMP JUMPDEST PUSH0 PUSH1 0x20 DUP3 ADD SWAP1 POP DUP2 DUP2 SUB PUSH0 DUP4 ADD MSTORE PUSH2 0x1302 DUP2 PUSH2 0x12C9 JUMP JUMPDEST SWAP1 POP SWAP2 SWAP1 POP JUMP JUMPDEST PUSH32 0x53563A20496E76616C6964206661726D65722061646472657373000000000000 PUSH0 DUP3 ADD MSTORE POP JUMP JUMPDEST PUSH0 PUSH2 0x133D PUSH1 0x1A DUP4 PUSH2 0x104A JUMP JUMPDEST SWAP2 POP PUSH2 0x1348 DUP3 PUSH2 0x1309 JUMP JUMPDEST PUSH1 0x20 DUP3 ADD SWAP1 POP SWAP2 SWAP1 POP JUMP JUMPDEST PUSH0 PUSH1 0x20 DUP3 ADD SWAP1 POP DUP2 DUP2 SUB PUSH0 DUP4 ADD MSTORE PUSH2 0x136A DUP2 PUSH2 0x1331 JUMP JUMPDEST SWAP1 POP SWAP2 SWAP1 POP JUMP JUMPDEST PUSH32 0x53563A20416D6F756E74206D7573742062652067726561746572207468616E20 PUSH0 DUP3 ADD MSTORE PUSH32 0x7A65726F00000000000000000000000000000000000000000000000000000000 PUSH1 0x20 DUP3 ADD MSTORE POP JUMP JUMPDEST PUSH0 PUSH2 0x13CB PUSH1 0x24 DUP4 PUSH2 0x104A JUMP JUMPDEST SWAP2 POP PUSH2 0x13D6 DUP3 PUSH2 0x1371 JUMP JUMPDEST PUSH1 0x40 DUP3 ADD SWAP1 POP SWAP2 SWAP1 POP JUMP JUMPDEST PUSH0 PUSH1 0x20 DUP3 ADD SWAP1 POP DUP2 DUP2 SUB PUSH0 DUP4 ADD MSTORE PUSH2 0x13F8 DUP2 PUSH2 0x13BF JUMP JUMPDEST SWAP1 POP SWAP2 SWAP1 POP JUMP JUMPDEST PUSH32 0x4E487B7100000000000000000000000000000000000000000000000000000000 PUSH0 MSTORE PUSH1 0x11 PUSH1 0x4 MSTORE PUSH1 0x24 PUSH0 REVERT JUMPDEST PUSH0 PUSH2 0x1436 DUP3 PUSH2 0xD60 JUMP JUMPDEST SWAP2 POP PUSH32 0xFFFFFFFFFFFFFFFFFFFFFFFFFFFFFFFFFFFFFFFFFFFFFFFFFFFFFFFFFFFFFFFF DUP3 SUB PUSH2 0x1468 JUMPI PUSH2 0x1467 PUSH2 0x13FF JUMP JUMPDEST JUMPDEST PUSH1 0x1 DUP3 ADD SWAP1 POP SWAP2 SWAP1 POP JUMP JUMPDEST PUSH0 PUSH1 0x40 DUP3 ADD SWAP1 POP PUSH2 0x1486 PUSH0 DUP4 ADD DUP6 PUSH2 0xDBE JUMP JUMPDEST PUSH2 0x1493 PUSH1 0x20 DUP4 ADD DUP5 PUSH2 0xDBE JUMP JUMPDEST SWAP4 SWAP3 POP POP POP JUMP JUMPDEST PUSH32 0x53563A20496E76616C6964206164647265737300000000000000000000000000 PUSH0 DUP3 ADD MSTORE POP JUMP JUMPDEST PUSH0 PUSH2 0x14CE PUSH1 0x13 DUP4 PUSH2 0x104A JUMP JUMPDEST SWAP2 POP PUSH2 0x14D9 DUP3 PUSH2 0x149A JUMP JUMPDEST PUSH1 0x20 DUP3 ADD SWAP1 POP SWAP2 SWAP1 POP JUMP JUMPDEST PUSH0 PUSH1 0x20 DUP3 ADD SWAP1 POP DUP2 DUP2 SUB PUSH0 DUP4 ADD MSTORE PUSH2 0x14FB DUP2 PUSH2 0x14C2 JUMP JUMPDEST SWAP1 POP SWAP2 SWAP1 POP JUMP JUMPDEST PUSH32 0x53563A20416C7265616479207265676973746572656400000000000000000000 PUSH0 DUP3 ADD MSTORE POP JUMP JUMPDEST PUSH0 PUSH2 0x1536 PUSH1 0x16 DUP4 PUSH2 0x104A JUMP JUMPDEST SWAP2 POP PUSH2 0x1541 DUP3 PUSH2 0x1502 JUMP JUMPDEST PUSH1 0x20 DUP3 ADD SWAP1 POP SWAP2 SWAP1 POP JUMP JUMPDEST PUSH0 PUSH1 0x20 DUP3 ADD SWAP1 POP DUP2 DUP2 SUB PUSH0 DUP4 ADD MSTORE PUSH2 0x1563 DUP2 PUSH2 0x152A JUMP JUMPDEST SWAP1 POP SWAP2 SWAP1 POP JUMP INVALID LOG2 PUSH5 0x6970667358 0x22 SLT KECCAK256 MSIZE 0xC9 BASEFEE MULMOD REVERT CALLVALUE 0xC8 PUSH9 0xC8E3E2047F39506C30 REVERT COINBASE MOD DUP4 SWAP4 0x2A 0x25 0xEB 0xA5 0xD PUSH19 0x5140BA1A64736F6C634300081E003300000000 "
				},
				"gasEstimates": {
					"creation": {
						"codeDepositCost": "1107200",
						"executionCost": "infinite",
						"totalCost": "infinite"
					},
					"external": {
						"funder()": "infinite",
						"getAllSuppliers()": "infinite",
						"isSupplier(address)": "2833",
						"issueVoucher(address,uint256)": "infinite",
						"redeemVoucher(uint256)": "infinite",
						"registerSupplier(address)": "infinite",
						"supplierList(uint256)": "4988",
						"unregisterSupplier(address)": "infinite",
						"vouchers(uint256)": "infinite"
					}
				},
				"methodIdentifiers": {
					"funder()": "041ae880",
					"getAllSuppliers()": "b53305dc",
					"isSupplier(address)": "46336542",
					"issueVoucher(address,uint256)": "8da75e57",
					"redeemVoucher(uint256)": "1c6d6b5e",
					"registerSupplier(address)": "cf7f5e5f",
					"supplierList(uint256)": "a58f6650",
					"unregisterSupplier(address)": "413104ee",
					"vouchers(uint256)": "3e97b43f"
				}
			},
			"storageLayout": {
				"storage": [
					{
						"astId": 7,
						"contract": "SubsidyVoucher.sol:SubsidyVouchers",
						"label": "voucherCounter",
						"offset": 0,
						"slot": "0",
						"type": "t_uint256"
					},
					{
						"astId": 32,
						"contract": "SubsidyVoucher.sol:SubsidyVouchers",
						"label": "vouchers",
						"offset": 0,
						"slot": "1",
						"type": "t_mapping(t_uint256,t_struct(Voucher)27_storage)"
					},
					{
						"astId": 36,
						"contract": "SubsidyVoucher.sol:SubsidyVouchers",
						"label": "isSupplier",
						"offset": 0,
						"slot": "2",
						"type": "t_mapping(t_address,t_bool)"
					},
					{
						"astId": 39,
						"contract": "SubsidyVoucher.sol:SubsidyVouchers",
						"label": "supplierList",
						"offset": 0,
						"slot": "3",
						"type": "t_array(t_address)dyn_storage"
					}
				],
				"types": {
					"t_address": {
						"encoding": "inplace",
						"label": "address",
						"numberOfBytes": "20"
					},
					"t_array(t_address)dyn_storage": {
						"base": "t_address",
						"encoding": "dynamic_array",
						"label": "address[]",
						"numberOfBytes": "32"
					},
					"t_bool": {
						"encoding": "inplace",
						"label": "bool",
						"numberOfBytes": "1"
					},
					"t_enum(Status)11": {
						"encoding": "inplace",
						"label": "enum SubsidyVouchers.Status",
						"numberOfBytes": "1"
					},
					"t_mapping(t_address,t_bool)": {
						"encoding": "mapping",
						"key": "t_address",
						"label": "mapping(address => bool)",
						"numberOfBytes": "32",
						"value": "t_bool"
					},
					"t_mapping(t_uint256,t_struct(Voucher)27_storage)": {
						"encoding": "mapping",
						"key": "t_uint256",
						"label": "mapping(uint256 => struct SubsidyVouchers.Voucher)",
						"numberOfBytes": "32",
						"value": "t_struct(Voucher)27_storage"
					},
					"t_struct(Voucher)27_storage": {
						"encoding": "inplace",
						"label": "struct SubsidyVouchers.Voucher",
						"members": [
							{
								"astId": 13,
								"contract": "SubsidyVoucher.sol:SubsidyVouchers",
								"label": "id",
								"offset": 0,
								"slot": "0",
								"type": "t_uint256"
							},
							{
								"astId": 15,
								"contract": "SubsidyVoucher.sol:SubsidyVouchers",
								"label": "farmer",
								"offset": 0,
								"slot": "1",
								"type": "t_address"
							},
							{
								"astId": 17,
								"contract": "SubsidyVoucher.sol:SubsidyVouchers",
								"label": "amount",
								"offset": 0,
								"slot": "2",
								"type": "t_uint256"
							},
							{
								"astId": 19,
								"contract": "SubsidyVoucher.sol:SubsidyVouchers",
								"label": "issueTime",
								"offset": 0,
								"slot": "3",
								"type": "t_uint256"
							},
							{
								"astId": 21,
								"contract": "SubsidyVoucher.sol:SubsidyVouchers",
								"label": "supplier",
								"offset": 0,
								"slot": "4",
								"type": "t_address"
							},
							{
								"astId": 23,
								"contract": "SubsidyVoucher.sol:SubsidyVouchers",
								"label": "redemptionTime",
								"offset": 0,
								"slot": "5",
								"type": "t_uint256"
							},
							{
								"astId": 26,
								"contract": "SubsidyVoucher.sol:SubsidyVouchers",
								"label": "status",
								"offset": 0,
								"slot": "6",
								"type": "t_enum(Status)11"
							}
						],
						"numberOfBytes": "224"
					},
					"t_uint256": {
						"encoding": "inplace",
						"label": "uint256",
						"numberOfBytes": "32"
					}
				}
			},
			"userdoc": {
				"kind": "user",
				"methods": {
					"registerSupplier(address)": {
						"notice": "Registers a new address as an authorized supplier."
					},
					"unregisterSupplier(address)": {
						"notice": "Revokes an address's supplier status."
					}
				},
				"notice": "A contract for issuing and tracking decentralized agricultural input subsidy vouchers.",
				"version": 1
			}
		}
	}
}